{
  "contractName": "Herramientas",
  "abi": [
    {
      "anonymous": false,
      "inputs": [
        {
          "indexed": true,
          "internalType": "uint256",
          "name": "id",
          "type": "uint256"
        },
        {
          "indexed": false,
          "internalType": "string",
          "name": "nombre",
          "type": "string"
        },
        {
          "indexed": false,
          "internalType": "string",
          "name": "descripcion",
          "type": "string"
        }
      ],
      "name": "HerramientaAdded",
      "type": "event"
    },
    {
      "anonymous": false,
      "inputs": [
        {
          "indexed": true,
          "internalType": "uint256",
          "name": "id",
          "type": "uint256"
        }
      ],
      "name": "HerramientaDeleted",
      "type": "event"
    },
    {
      "anonymous": false,
      "inputs": [
        {
          "indexed": true,
          "internalType": "uint256",
          "name": "id",
          "type": "uint256"
        },
        {
          "indexed": false,
          "internalType": "string",
          "name": "nombre",
          "type": "string"
        },
        {
          "indexed": false,
          "internalType": "string",
          "name": "descripcion",
          "type": "string"
        }
      ],
      "name": "HerramientaUpdated",
      "type": "event"
    },
    {
      "inputs": [
        {
          "internalType": "string",
          "name": "nombre",
          "type": "string"
        },
        {
          "internalType": "string",
          "name": "descripcion",
          "type": "string"
        }
      ],
      "name": "agregarHerramienta",
      "outputs": [],
      "stateMutability": "nonpayable",
      "type": "function"
    },
    {
      "inputs": [
        {
          "internalType": "uint256",
          "name": "id",
          "type": "uint256"
        },
        {
          "internalType": "string",
          "name": "nombre",
          "type": "string"
        },
        {
          "internalType": "string",
          "name": "descripcion",
          "type": "string"
        }
      ],
      "name": "actualizarHerramienta",
      "outputs": [],
      "stateMutability": "nonpayable",
      "type": "function"
    },
    {
      "inputs": [
        {
          "internalType": "uint256",
          "name": "id",
          "type": "uint256"
        }
      ],
      "name": "eliminarHerramienta",
      "outputs": [],
      "stateMutability": "nonpayable",
      "type": "function"
    },
    {
      "inputs": [
        {
          "internalType": "uint256",
          "name": "id",
          "type": "uint256"
        }
      ],
      "name": "obtenerHerramienta",
      "outputs": [
        {
          "internalType": "string",
          "name": "nombre",
          "type": "string"
        },
        {
          "internalType": "string",
          "name": "descripcion",
          "type": "string"
        },
        {
          "internalType": "address",
          "name": "reportadoPor",
          "type": "address"
        },
        {
          "internalType": "uint256",
          "name": "fechaReporte",
          "type": "uint256"
        }
      ],
      "stateMutability": "view",
      "type": "function",
      "constant": true
    },
    {
      "inputs": [],
      "name": "obtenerTodasHerramientas",
      "outputs": [
        {
          "components": [
            {
              "internalType": "string",
              "name": "nombre",
              "type": "string"
            },
            {
              "internalType": "string",
              "name": "descripcion",
              "type": "string"
            },
            {
              "internalType": "address",
              "name": "reportadoPor",
              "type": "address"
            },
            {
              "internalType": "uint256",
              "name": "fechaReporte",
              "type": "uint256"
            }
          ],
          "internalType": "struct IHerramientas.Herramienta[]",
          "name": "",
          "type": "tuple[]"
        }
      ],
      "stateMutability": "view",
      "type": "function",
      "constant": true
    }
  ],
  "bytecode": "0x6080604052600060015534801561001557600080fd5b5061128c806100256000396000f3fe608060405234801561001057600080fd5b50600436106100575760003560e01c80637cc5e41c1461005c57806394cec54b1461007a5780639ef0724414610096578063d62ac10c146100b2578063e2921ea5146100ce575b600080fd5b610064610101565b6040516100719190610a79565b60405180910390f35b610094600480360381019061008f9190610be4565b610344565b005b6100b060048036038101906100ab9190610c88565b610478565b005b6100cc60048036038101906100c79190610cb5565b610550565b005b6100e860048036038101906100e39190610c88565b61060e565b6040516100f89493929190610da8565b60405180910390f35b6060600060015467ffffffffffffffff81111561012157610120610ab9565b5b60405190808252806020026020018201604052801561015a57816020015b6101476107c8565b81526020019060019003908161013f5790505b50905060005b60015481101561033c5760008082815260200190815260200160002060405180608001604052908160008201805461019790610e2a565b80601f01602080910402602001604051908101604052809291908181526020018280546101c390610e2a565b80156102105780601f106101e557610100808354040283529160200191610210565b820191906000526020600020905b8154815290600101906020018083116101f357829003601f168201915b5050505050815260200160018201805461022990610e2a565b80601f016020809104026020016040519081016040528092919081815260200182805461025590610e2a565b80156102a25780601f10610277576101008083540402835291602001916102a2565b820191906000526020600020905b81548152906001019060200180831161028557829003601f168201915b505050505081526020016002820160009054906101000a900473ffffffffffffffffffffffffffffffffffffffff1673ffffffffffffffffffffffffffffffffffffffff1673ffffffffffffffffffffffffffffffffffffffff16815260200160038201548152505082828151811061031e5761031d610e5b565b5b6020026020010181905250808061033490610eb9565b915050610160565b508091505090565b600060405180608001604052808481526020018381526020013373ffffffffffffffffffffffffffffffffffffffff16815260200142815250905080600080600154815260200190815260200160002060008201518160000190816103a991906110ad565b5060208201518160010190816103bf91906110ad565b5060408201518160020160006101000a81548173ffffffffffffffffffffffffffffffffffffffff021916908373ffffffffffffffffffffffffffffffffffffffff160217905550606082015181600301559050506001600081548092919061042790610eb9565b91905055506001805461043a919061117f565b7f2e80a924c7797346825e24b6d35c6bfb3b329db31cbcc1a2cc087e79932f1f07848460405161046b9291906111b3565b60405180910390a2505050565b60015481106104bc576040517f08c379a00000000000000000000000000000000000000000000000000000000081526004016104b390611236565b60405180910390fd5b600080828152602001908152602001600020600080820160006104df9190610806565b6001820160006104ef9190610806565b6002820160006101000a81549073ffffffffffffffffffffffffffffffffffffffff021916905560038201600090555050807f6b8b19fc5f5218056f214a8ec905eee5cd61f29b46231c273340050d340ed59960405160405180910390a250565b6001548310610594576040517f08c379a000000000000000000000000000000000000000000000000000000000815260040161058b90611236565b60405180910390fd5b60008060008581526020019081526020016000209050828160000190816105bb91906110ad565b50818160010190816105cd91906110ad565b50837fbca83537e657e46f599579d0330396d6ff30198890806da12350a50bfd08cfb084846040516106009291906111b3565b60405180910390a250505050565b6060806000806001548510610658576040517f08c379a000000000000000000000000000000000000000000000000000000000815260040161064f90611236565b60405180910390fd5b6000806000878152602001908152602001600020905080600001816001018260020160009054906101000a900473ffffffffffffffffffffffffffffffffffffffff1683600301548380546106ac90610e2a565b80601f01602080910402602001604051908101604052809291908181526020018280546106d890610e2a565b80156107255780601f106106fa57610100808354040283529160200191610725565b820191906000526020600020905b81548152906001019060200180831161070857829003601f168201915b5050505050935082805461073890610e2a565b80601f016020809104026020016040519081016040528092919081815260200182805461076490610e2a565b80156107b15780601f10610786576101008083540402835291602001916107b1565b820191906000526020600020905b81548152906001019060200180831161079457829003601f168201915b505050505092509450945094509450509193509193565b60405180608001604052806060815260200160608152602001600073ffffffffffffffffffffffffffffffffffffffff168152602001600081525090565b50805461081290610e2a565b6000825580601f106108245750610843565b601f0160209004906000526020600020908101906108429190610846565b5b50565b5b8082111561085f576000816000905550600101610847565b5090565b600081519050919050565b600082825260208201905092915050565b6000819050602082019050919050565b600081519050919050565b600082825260208201905092915050565b60005b838110156108c95780820151818401526020810190506108ae565b60008484015250505050565b6000601f19601f8301169050919050565b60006108f18261088f565b6108fb818561089a565b935061090b8185602086016108ab565b610914816108d5565b840191505092915050565b600073ffffffffffffffffffffffffffffffffffffffff82169050919050565b600061094a8261091f565b9050919050565b61095a8161093f565b82525050565b6000819050919050565b61097381610960565b82525050565b6000608083016000830151848203600086015261099682826108e6565b915050602083015184820360208601526109b082826108e6565b91505060408301516109c56040860182610951565b5060608301516109d8606086018261096a565b508091505092915050565b60006109ef8383610979565b905092915050565b6000602082019050919050565b6000610a0f82610863565b610a19818561086e565b935083602082028501610a2b8561087f565b8060005b85811015610a675784840389528151610a4885826109e3565b9450610a53836109f7565b925060208a01995050600181019050610a2f565b50829750879550505050505092915050565b60006020820190508181036000830152610a938184610a04565b905092915050565b6000604051905090565b600080fd5b600080fd5b600080fd5b600080fd5b7f4e487b7100000000000000000000000000000000000000000000000000000000600052604160045260246000fd5b610af1826108d5565b810181811067ffffffffffffffff82111715610b1057610b0f610ab9565b5b80604052505050565b6000610b23610a9b565b9050610b2f8282610ae8565b919050565b600067ffffffffffffffff821115610b4f57610b4e610ab9565b5b610b58826108d5565b9050602081019050919050565b82818337600083830152505050565b6000610b87610b8284610b34565b610b19565b905082815260208101848484011115610ba357610ba2610ab4565b5b610bae848285610b65565b509392505050565b600082601f830112610bcb57610bca610aaf565b5b8135610bdb848260208601610b74565b91505092915050565b60008060408385031215610bfb57610bfa610aa5565b5b600083013567ffffffffffffffff811115610c1957610c18610aaa565b5b610c2585828601610bb6565b925050602083013567ffffffffffffffff811115610c4657610c45610aaa565b5b610c5285828601610bb6565b9150509250929050565b610c6581610960565b8114610c7057600080fd5b50565b600081359050610c8281610c5c565b92915050565b600060208284031215610c9e57610c9d610aa5565b5b6000610cac84828501610c73565b91505092915050565b600080600060608486031215610cce57610ccd610aa5565b5b6000610cdc86828701610c73565b935050602084013567ffffffffffffffff811115610cfd57610cfc610aaa565b5b610d0986828701610bb6565b925050604084013567ffffffffffffffff811115610d2a57610d29610aaa565b5b610d3686828701610bb6565b9150509250925092565b600082825260208201905092915050565b6000610d5c8261088f565b610d668185610d40565b9350610d768185602086016108ab565b610d7f816108d5565b840191505092915050565b610d938161093f565b82525050565b610da281610960565b82525050565b60006080820190508181036000830152610dc28187610d51565b90508181036020830152610dd68186610d51565b9050610de56040830185610d8a565b610df26060830184610d99565b95945050505050565b7f4e487b7100000000000000000000000000000000000000000000000000000000600052602260045260246000fd5b60006002820490506001821680610e4257607f821691505b602082108103610e5557610e54610dfb565b5b50919050565b7f4e487b7100000000000000000000000000000000000000000000000000000000600052603260045260246000fd5b7f4e487b7100000000000000000000000000000000000000000000000000000000600052601160045260246000fd5b6000610ec482610960565b91507fffffffffffffffffffffffffffffffffffffffffffffffffffffffffffffffff8203610ef657610ef5610e8a565b5b600182019050919050565b60008190508160005260206000209050919050565b60006020601f8301049050919050565b600082821b905092915050565b600060088302610f637fffffffffffffffffffffffffffffffffffffffffffffffffffffffffffffffff82610f26565b610f6d8683610f26565b95508019841693508086168417925050509392505050565b6000819050919050565b6000610faa610fa5610fa084610960565b610f85565b610960565b9050919050565b6000819050919050565b610fc483610f8f565b610fd8610fd082610fb1565b848454610f33565b825550505050565b600090565b610fed610fe0565b610ff8818484610fbb565b505050565b5b8181101561101c57611011600082610fe5565b600181019050610ffe565b5050565b601f8211156110615761103281610f01565b61103b84610f16565b8101602085101561104a578190505b61105e61105685610f16565b830182610ffd565b50505b505050565b600082821c905092915050565b600061108460001984600802611066565b1980831691505092915050565b600061109d8383611073565b9150826002028217905092915050565b6110b68261088f565b67ffffffffffffffff8111156110cf576110ce610ab9565b5b6110d98254610e2a565b6110e4828285611020565b600060209050601f8311600181146111175760008415611105578287015190505b61110f8582611091565b865550611177565b601f19841661112586610f01565b60005b8281101561114d57848901518255600182019150602085019450602081019050611128565b8683101561116a5784890151611166601f891682611073565b8355505b6001600288020188555050505b505050505050565b600061118a82610960565b915061119583610960565b92508282039050818111156111ad576111ac610e8a565b5b92915050565b600060408201905081810360008301526111cd8185610d51565b905081810360208301526111e18184610d51565b90509392505050565b7f48657272616d69656e7461206e6f206578697374650000000000000000000000600082015250565b6000611220601583610d40565b915061122b826111ea565b602082019050919050565b6000602082019050818103600083015261124f81611213565b905091905056fea264697066735822122064cc34bbc8676133086aedcf668ae96dd00b1e8c1ea95fa5fa7a3008abc206c264736f6c63430008150033",
  "immutableReferences": {},
  "source": "// SPDX-License-Identifier: MIT\r\npragma solidity ^0.8.0;\r\n\r\nimport \"../interfaces/IHerramientas.sol\";\r\n\r\ncontract Herramientas is IHerramientas {\r\n    mapping(uint256 => Herramienta) private herramientas;\r\n    uint256 private totalHerramientas = 0;\r\n\r\n    event HerramientaAdded(uint256 indexed id, string nombre, string descripcion);\r\n    event HerramientaUpdated(uint256 indexed id, string nombre, string descripcion);\r\n    event HerramientaDeleted(uint256 indexed id);\r\n\r\n    function agregarHerramienta(string memory nombre, string memory descripcion) public {\r\n        Herramienta memory nuevaHerramienta = Herramienta({\r\n            nombre: nombre,\r\n            descripcion: descripcion,\r\n            reportadoPor: msg.sender,\r\n            fechaReporte: block.timestamp\r\n        });\r\n\r\n        herramientas[totalHerramientas] = nuevaHerramienta;\r\n        totalHerramientas++;\r\n        emit HerramientaAdded(totalHerramientas - 1, nombre, descripcion);\r\n    }\r\n\r\n    function actualizarHerramienta(uint256 id, string memory nombre, string memory descripcion) public {\r\n        require(id < totalHerramientas, \"Herramienta no existe\");\r\n        Herramienta storage herramienta = herramientas[id];\r\n        herramienta.nombre = nombre;\r\n        herramienta.descripcion = descripcion;\r\n        emit HerramientaUpdated(id, nombre, descripcion);\r\n    }\r\n\r\n    function eliminarHerramienta(uint256 id) public {\r\n        require(id < totalHerramientas, \"Herramienta no existe\");\r\n        delete herramientas[id];\r\n        emit HerramientaDeleted(id);\r\n    }\r\n\r\n    function obtenerHerramienta(uint256 id) public view returns (string memory nombre, string memory descripcion, address reportadoPor, uint256 fechaReporte) {\r\n        require(id < totalHerramientas, \"Herramienta no existe\");\r\n        Herramienta storage herramienta = herramientas[id];\r\n        return (herramienta.nombre, herramienta.descripcion, herramienta.reportadoPor, herramienta.fechaReporte);\r\n    }\r\n\r\n    function obtenerTodasHerramientas() public view returns (Herramienta[] memory) {\r\n        Herramienta[] memory todas = new Herramienta[](totalHerramientas);\r\n        for (uint256 i = 0; i < totalHerramientas; i++) {\r\n            todas[i] = herramientas[i];\r\n        }\r\n        return todas;\r\n    }\r\n}\r\n",
  "sourcePath": "C:\\Users\\difer\\Desktop\\Truffle\\contracts\\contratos\\Herramientas.sol",
  "compiler": {
    "name": "solc",
    "version": "0.8.21+commit.d9974bed.Emscripten.clang"
  },
  "schemaVersion": "3.4.16",
  "updatedAt": "2024-05-12T10:31:54.021Z",
  "networkType": "ethereum",
  "devdoc": {
    "kind": "dev",
    "methods": {},
    "version": 1
  },
  "userdoc": {
    "kind": "user",
    "methods": {},
    "version": 1
  }
}