{
  "contractName": "Indicador",
  "abi": [
    {
      "inputs": [],
      "stateMutability": "nonpayable",
      "type": "constructor"
    },
    {
      "anonymous": false,
      "inputs": [
        {
          "indexed": true,
          "internalType": "uint256",
          "name": "id",
          "type": "uint256"
        },
        {
          "indexed": false,
          "internalType": "string",
          "name": "tipo",
          "type": "string"
        },
        {
          "indexed": false,
          "internalType": "string",
          "name": "valor",
          "type": "string"
        }
      ],
      "name": "IOCAdded",
      "type": "event"
    },
    {
      "anonymous": false,
      "inputs": [
        {
          "indexed": true,
          "internalType": "uint256",
          "name": "id",
          "type": "uint256"
        }
      ],
      "name": "IOCDeleted",
      "type": "event"
    },
    {
      "anonymous": false,
      "inputs": [
        {
          "indexed": true,
          "internalType": "uint256",
          "name": "id",
          "type": "uint256"
        },
        {
          "indexed": false,
          "internalType": "string",
          "name": "tipo",
          "type": "string"
        },
        {
          "indexed": false,
          "internalType": "string",
          "name": "valor",
          "type": "string"
        }
      ],
      "name": "IOCUpdated",
      "type": "event"
    },
    {
      "inputs": [
        {
          "internalType": "string",
          "name": "_nuevoTipo",
          "type": "string"
        }
      ],
      "name": "agregarTipoPermitido",
      "outputs": [],
      "stateMutability": "nonpayable",
      "type": "function"
    },
    {
      "inputs": [
        {
          "internalType": "string",
          "name": "_tipo",
          "type": "string"
        },
        {
          "internalType": "string",
          "name": "_valor",
          "type": "string"
        }
      ],
      "name": "agregarIOC",
      "outputs": [],
      "stateMutability": "nonpayable",
      "type": "function"
    },
    {
      "inputs": [
        {
          "internalType": "uint256",
          "name": "_id",
          "type": "uint256"
        },
        {
          "internalType": "string",
          "name": "_tipo",
          "type": "string"
        },
        {
          "internalType": "string",
          "name": "_valor",
          "type": "string"
        }
      ],
      "name": "actualizarIOC",
      "outputs": [],
      "stateMutability": "nonpayable",
      "type": "function"
    },
    {
      "inputs": [
        {
          "internalType": "uint256",
          "name": "_id",
          "type": "uint256"
        }
      ],
      "name": "eliminarIOC",
      "outputs": [],
      "stateMutability": "nonpayable",
      "type": "function"
    },
    {
      "inputs": [
        {
          "internalType": "uint256",
          "name": "_id",
          "type": "uint256"
        }
      ],
      "name": "obtenerIOC",
      "outputs": [
        {
          "internalType": "string",
          "name": "tipo",
          "type": "string"
        },
        {
          "internalType": "string",
          "name": "valor",
          "type": "string"
        },
        {
          "internalType": "address",
          "name": "reportadoPor",
          "type": "address"
        },
        {
          "internalType": "uint256",
          "name": "fechaReporte",
          "type": "uint256"
        }
      ],
      "stateMutability": "view",
      "type": "function",
      "constant": true
    },
    {
      "inputs": [],
      "name": "obtenerTodosIOCs",
      "outputs": [
        {
          "components": [
            {
              "internalType": "string",
              "name": "tipo",
              "type": "string"
            },
            {
              "internalType": "string",
              "name": "valor",
              "type": "string"
            },
            {
              "internalType": "address",
              "name": "reportadoPor",
              "type": "address"
            },
            {
              "internalType": "uint256",
              "name": "fechaReporte",
              "type": "uint256"
            }
          ],
          "internalType": "struct Indicador.IOC[]",
          "name": "",
          "type": "tuple[]"
        }
      ],
      "stateMutability": "view",
      "type": "function",
      "constant": true
    },
    {
      "inputs": [
        {
          "internalType": "string",
          "name": "_valor",
          "type": "string"
        }
      ],
      "name": "esIOCReportado",
      "outputs": [
        {
          "internalType": "bool",
          "name": "",
          "type": "bool"
        }
      ],
      "stateMutability": "view",
      "type": "function",
      "constant": true
    }
  ],
  "bytecode": "0x608060405260006001553480156200001657600080fd5b50600280600181540180825580915050600190039060005260206000200160006040518060400160405280600281526020017f4950000000000000000000000000000000000000000000000000000000000000815250909190915090816200007f91906200043b565b50600280600181540180825580915050600190039060005260206000200160006040518060400160405280600381526020017f55524c000000000000000000000000000000000000000000000000000000000081525090919091509081620000e891906200043b565b50600280600181540180825580915050600190039060005260206000200160006040518060400160405280600481526020017f4861736800000000000000000000000000000000000000000000000000000000815250909190915090816200015191906200043b565b50600280600181540180825580915050600190039060005260206000200160006040518060400160405280600581526020017f456d61696c00000000000000000000000000000000000000000000000000000081525090919091509081620001ba91906200043b565b5062000522565b600081519050919050565b7f4e487b7100000000000000000000000000000000000000000000000000000000600052604160045260246000fd5b7f4e487b7100000000000000000000000000000000000000000000000000000000600052602260045260246000fd5b600060028204905060018216806200024357607f821691505b602082108103620002595762000258620001fb565b5b50919050565b60008190508160005260206000209050919050565b60006020601f8301049050919050565b600082821b905092915050565b600060088302620002c37fffffffffffffffffffffffffffffffffffffffffffffffffffffffffffffffff8262000284565b620002cf868362000284565b95508019841693508086168417925050509392505050565b6000819050919050565b6000819050919050565b60006200031c620003166200031084620002e7565b620002f1565b620002e7565b9050919050565b6000819050919050565b6200033883620002fb565b62000350620003478262000323565b84845462000291565b825550505050565b600090565b6200036762000358565b620003748184846200032d565b505050565b5b818110156200039c57620003906000826200035d565b6001810190506200037a565b5050565b601f821115620003eb57620003b5816200025f565b620003c08462000274565b81016020851015620003d0578190505b620003e8620003df8562000274565b83018262000379565b50505b505050565b600082821c905092915050565b60006200041060001984600802620003f0565b1980831691505092915050565b60006200042b8383620003fd565b9150826002028217905092915050565b6200044682620001c1565b67ffffffffffffffff811115620004625762000461620001cc565b5b6200046e82546200022a565b6200047b828285620003a0565b600060209050601f831160018114620004b357600084156200049e578287015190505b620004aa85826200041d565b8655506200051a565b601f198416620004c3866200025f565b60005b82811015620004ed57848901518255600182019150602085019450602081019050620004c6565b868310156200050d578489015162000509601f891682620003fd565b8355505b6001600288020188555050505b505050505050565b611f2c80620005326000396000f3fe608060405234801561001057600080fd5b506004361061007d5760003560e01c80639290aaa21161005b5780639290aaa2146100ef578063ccd666d21461010b578063e8e4633314610127578063f6b7af94146101575761007d565b8063390b61161461008257806355f40ba9146100b55780636143a4ec146100d3575b600080fd5b61009c600480360381019061009791906110e5565b610173565b6040516100ac94939291906111f2565b60405180910390f35b6100bd61032d565b6040516100ca91906113d9565b60405180910390f35b6100ed60048036038101906100e89190611530565b6105cf565b005b61010960048036038101906101049190611579565b610607565b005b610125600480360381019061012091906110e5565b610815565b005b610141600480360381019061013c9190611530565b6108ed565b60405161014e919061160c565b60405180910390f35b610171600480360381019061016c9190611627565b61098e565b005b60608060008060015485106101bd576040517f08c379a00000000000000000000000000000000000000000000000000000000081526004016101b4906116fe565b60405180910390fd5b6000806000878152602001908152602001600020905080600001816001018260020160009054906101000a900473ffffffffffffffffffffffffffffffffffffffff1683600301548380546102119061174d565b80601f016020809104026020016040519081016040528092919081815260200182805461023d9061174d565b801561028a5780601f1061025f5761010080835404028352916020019161028a565b820191906000526020600020905b81548152906001019060200180831161026d57829003601f168201915b5050505050935082805461029d9061174d565b80601f01602080910402602001604051908101604052809291908181526020018280546102c99061174d565b80156103165780601f106102eb57610100808354040283529160200191610316565b820191906000526020600020905b8154815290600101906020018083116102f957829003601f168201915b505050505092509450945094509450509193509193565b6060600060015467ffffffffffffffff81111561034d5761034c611405565b5b60405190808252806020026020018201604052801561038657816020015b610373611000565b81526020019060019003908161036b5790505b50905060005b6001548110156105c75760008060008381526020019081526020016000209050600073ffffffffffffffffffffffffffffffffffffffff168160020160009054906101000a900473ffffffffffffffffffffffffffffffffffffffff1673ffffffffffffffffffffffffffffffffffffffff16146105b357806040518060800160405290816000820180546104209061174d565b80601f016020809104026020016040519081016040528092919081815260200182805461044c9061174d565b80156104995780601f1061046e57610100808354040283529160200191610499565b820191906000526020600020905b81548152906001019060200180831161047c57829003601f168201915b505050505081526020016001820180546104b29061174d565b80601f01602080910402602001604051908101604052809291908181526020018280546104de9061174d565b801561052b5780601f106105005761010080835404028352916020019161052b565b820191906000526020600020905b81548152906001019060200180831161050e57829003601f168201915b505050505081526020016002820160009054906101000a900473ffffffffffffffffffffffffffffffffffffffff1673ffffffffffffffffffffffffffffffffffffffff1673ffffffffffffffffffffffffffffffffffffffff1681526020016003820154815250508383815181106105a7576105a661177e565b5b60200260200101819052505b5080806105bf906117dc565b91505061038c565b508091505090565b60028190806001815401808255809150506001900390600052602060002001600090919091909150908161060391906119d0565b5050565b61061082610b26565b61064f576040517f08c379a000000000000000000000000000000000000000000000000000000000815260040161064690611aee565b60405180910390fd5b6106598282610bd3565b610698576040517f08c379a000000000000000000000000000000000000000000000000000000000815260040161068f90611b5a565b60405180910390fd5b6106a1816108ed565b156106e1576040517f08c379a00000000000000000000000000000000000000000000000000000000081526004016106d890611bc6565b60405180910390fd5b600060405180608001604052808481526020018381526020013373ffffffffffffffffffffffffffffffffffffffff168152602001428152509050806000806001548152602001908152602001600020600082015181600001908161074691906119d0565b50602082015181600101908161075c91906119d0565b5060408201518160020160006101000a81548173ffffffffffffffffffffffffffffffffffffffff021916908373ffffffffffffffffffffffffffffffffffffffff16021790555060608201518160030155905050600160008154809291906107c4906117dc565b9190505550600180546107d79190611be6565b7fd837ff65a2f55c0e1efeacfd0f47e4e70282337f778009e58819881bb31d68518484604051610808929190611c1a565b60405180910390a2505050565b6001548110610859576040517f08c379a0000000000000000000000000000000000000000000000000000000008152600401610850906116fe565b60405180910390fd5b6000808281526020019081526020016000206000808201600061087c919061103e565b60018201600061088c919061103e565b6002820160006101000a81549073ffffffffffffffffffffffffffffffffffffffff021916905560038201600090555050807fece49e958a603088b69df25dbed8fa3def065badcd84c0fd126f55d875b3e20460405160405180910390a250565b600080600090505b60015481101561098357826040516020016109109190611c8d565b6040516020818303038152906040528051906020012060008083815260200190815260200160002060010160405160200161094b9190611d27565b6040516020818303038152906040528051906020012003610970576001915050610989565b808061097b906117dc565b9150506108f5565b50600090505b919050565b60015483106109d2576040517f08c379a00000000000000000000000000000000000000000000000000000000081526004016109c9906116fe565b60405180910390fd5b6109db82610b26565b610a1a576040517f08c379a0000000000000000000000000000000000000000000000000000000008152600401610a1190611aee565b60405180910390fd5b610a248282610bd3565b610a63576040517f08c379a0000000000000000000000000000000000000000000000000000000008152600401610a5a90611b5a565b60405180910390fd5b610a6c816108ed565b15610aac576040517f08c379a0000000000000000000000000000000000000000000000000000000008152600401610aa390611bc6565b60405180910390fd5b6000806000858152602001908152602001600020905082816000019081610ad391906119d0565b5081816001019081610ae591906119d0565b50837f9893f2f232e4ab0d3d56384866504b1d510affb204a862b80a809cdeb61079db8484604051610b18929190611c1a565b60405180910390a250505050565b600080600090505b600280549050811015610bc85760028181548110610b4f57610b4e61177e565b5b90600052602060002001604051602001610b699190611d27565b6040516020818303038152906040528051906020012083604051602001610b909190611c8d565b6040516020818303038152906040528051906020012003610bb5576001915050610bce565b8080610bc0906117dc565b915050610b2e565b50600090505b919050565b600080829050604051602001610be890611d8a565b6040516020818303038152906040528051906020012084604051602001610c0f9190611c8d565b6040516020818303038152906040528051906020012003610c5f576003610c56827f2e00000000000000000000000000000000000000000000000000000000000000610e2d565b14915050610e27565b604051602001610c6e90611deb565b6040516020818303038152906040528051906020012084604051602001610c959190611c8d565b6040516020818303038152906040528051906020012003610d3d57610cef836040518060400160405280600781526020017f687474703a2f2f00000000000000000000000000000000000000000000000000815250610ed5565b80610d355750610d34836040518060400160405280600881526020017f68747470733a2f2f000000000000000000000000000000000000000000000000815250610ed5565b5b915050610e27565b604051602001610d4c90611e4c565b6040516020818303038152906040528051906020012084604051602001610d739190611c8d565b6040516020818303038152906040528051906020012003610d9b576040815114915050610e27565b604051602001610daa90611ead565b6040516020818303038152906040528051906020012084604051602001610dd19190611c8d565b6040516020818303038152906040528051906020012003610e21576001610e18827f4000000000000000000000000000000000000000000000000000000000000000610e2d565b14915050610e27565b60009150505b92915050565b6000806000905060005b8451811015610eca57837effffffffffffffffffffffffffffffffffffffffffffffffffffffffffffff1916858281518110610e7657610e7561177e565b5b602001015160f81c60f81b7effffffffffffffffffffffffffffffffffffffffffffffffffffffffffffff191603610eb7578180610eb3906117dc565b9250505b8080610ec2906117dc565b915050610e37565b508091505092915050565b6000808390506000839050805182511015610ef557600092505050610ffa565b60005b81518351610f069190611be6565b8111610ff25760006001905060005b8351811015610fca57838181518110610f3157610f3061177e565b5b602001015160f81c60f81b7effffffffffffffffffffffffffffffffffffffffffffffffffffffffffffff1916858285610f6b9190611ec2565b81518110610f7c57610f7b61177e565b5b602001015160f81c60f81b7effffffffffffffffffffffffffffffffffffffffffffffffffffffffffffff191614610fb75760009150610fca565b8080610fc2906117dc565b915050610f15565b508015610fde576001945050505050610ffa565b508080610fea906117dc565b915050610ef8565b506000925050505b92915050565b60405180608001604052806060815260200160608152602001600073ffffffffffffffffffffffffffffffffffffffff168152602001600081525090565b50805461104a9061174d565b6000825580601f1061105c575061107b565b601f01602090049060005260206000209081019061107a919061107e565b5b50565b5b8082111561109757600081600090555060010161107f565b5090565b6000604051905090565b600080fd5b600080fd5b6000819050919050565b6110c2816110af565b81146110cd57600080fd5b50565b6000813590506110df816110b9565b92915050565b6000602082840312156110fb576110fa6110a5565b5b6000611109848285016110d0565b91505092915050565b600081519050919050565b600082825260208201905092915050565b60005b8381101561114c578082015181840152602081019050611131565b60008484015250505050565b6000601f19601f8301169050919050565b600061117482611112565b61117e818561111d565b935061118e81856020860161112e565b61119781611158565b840191505092915050565b600073ffffffffffffffffffffffffffffffffffffffff82169050919050565b60006111cd826111a2565b9050919050565b6111dd816111c2565b82525050565b6111ec816110af565b82525050565b6000608082019050818103600083015261120c8187611169565b905081810360208301526112208186611169565b905061122f60408301856111d4565b61123c60608301846111e3565b95945050505050565b600081519050919050565b600082825260208201905092915050565b6000819050602082019050919050565b600082825260208201905092915050565b600061128d82611112565b6112978185611271565b93506112a781856020860161112e565b6112b081611158565b840191505092915050565b6112c4816111c2565b82525050565b6112d3816110af565b82525050565b600060808301600083015184820360008601526112f68282611282565b915050602083015184820360208601526113108282611282565b915050604083015161132560408601826112bb565b50606083015161133860608601826112ca565b508091505092915050565b600061134f83836112d9565b905092915050565b6000602082019050919050565b600061136f82611245565b6113798185611250565b93508360208202850161138b85611261565b8060005b858110156113c757848403895281516113a88582611343565b94506113b383611357565b925060208a0199505060018101905061138f565b50829750879550505050505092915050565b600060208201905081810360008301526113f38184611364565b905092915050565b600080fd5b600080fd5b7f4e487b7100000000000000000000000000000000000000000000000000000000600052604160045260246000fd5b61143d82611158565b810181811067ffffffffffffffff8211171561145c5761145b611405565b5b80604052505050565b600061146f61109b565b905061147b8282611434565b919050565b600067ffffffffffffffff82111561149b5761149a611405565b5b6114a482611158565b9050602081019050919050565b82818337600083830152505050565b60006114d36114ce84611480565b611465565b9050828152602081018484840111156114ef576114ee611400565b5b6114fa8482856114b1565b509392505050565b600082601f830112611517576115166113fb565b5b81356115278482602086016114c0565b91505092915050565b600060208284031215611546576115456110a5565b5b600082013567ffffffffffffffff811115611564576115636110aa565b5b61157084828501611502565b91505092915050565b600080604083850312156115905761158f6110a5565b5b600083013567ffffffffffffffff8111156115ae576115ad6110aa565b5b6115ba85828601611502565b925050602083013567ffffffffffffffff8111156115db576115da6110aa565b5b6115e785828601611502565b9150509250929050565b60008115159050919050565b611606816115f1565b82525050565b600060208201905061162160008301846115fd565b92915050565b6000806000606084860312156116405761163f6110a5565b5b600061164e868287016110d0565b935050602084013567ffffffffffffffff81111561166f5761166e6110aa565b5b61167b86828701611502565b925050604084013567ffffffffffffffff81111561169c5761169b6110aa565b5b6116a886828701611502565b9150509250925092565b7f494f43206e6f2065786973746500000000000000000000000000000000000000600082015250565b60006116e8600d8361111d565b91506116f3826116b2565b602082019050919050565b60006020820190508181036000830152611717816116db565b9050919050565b7f4e487b7100000000000000000000000000000000000000000000000000000000600052602260045260246000fd5b6000600282049050600182168061176557607f821691505b6020821081036117785761177761171e565b5b50919050565b7f4e487b7100000000000000000000000000000000000000000000000000000000600052603260045260246000fd5b7f4e487b7100000000000000000000000000000000000000000000000000000000600052601160045260246000fd5b60006117e7826110af565b91507fffffffffffffffffffffffffffffffffffffffffffffffffffffffffffffffff8203611819576118186117ad565b5b600182019050919050565b60008190508160005260206000209050919050565b60006020601f8301049050919050565b600082821b905092915050565b6000600883026118867fffffffffffffffffffffffffffffffffffffffffffffffffffffffffffffffff82611849565b6118908683611849565b95508019841693508086168417925050509392505050565b6000819050919050565b60006118cd6118c86118c3846110af565b6118a8565b6110af565b9050919050565b6000819050919050565b6118e7836118b2565b6118fb6118f3826118d4565b848454611856565b825550505050565b600090565b611910611903565b61191b8184846118de565b505050565b5b8181101561193f57611934600082611908565b600181019050611921565b5050565b601f8211156119845761195581611824565b61195e84611839565b8101602085101561196d578190505b61198161197985611839565b830182611920565b50505b505050565b600082821c905092915050565b60006119a760001984600802611989565b1980831691505092915050565b60006119c08383611996565b9150826002028217905092915050565b6119d982611112565b67ffffffffffffffff8111156119f2576119f1611405565b5b6119fc825461174d565b611a07828285611943565b600060209050601f831160018114611a3a5760008415611a28578287015190505b611a3285826119b4565b865550611a9a565b601f198416611a4886611824565b60005b82811015611a7057848901518255600182019150602085019450602081019050611a4b565b86831015611a8d5784890151611a89601f891682611996565b8355505b6001600288020188555050505b505050505050565b7f5469706f20646520494f43206e6f207065726d697469646f0000000000000000600082015250565b6000611ad860188361111d565b9150611ae382611aa2565b602082019050919050565b60006020820190508181036000830152611b0781611acb565b9050919050565b7f466f726d61746f20646520494f4320696e76616c69646f000000000000000000600082015250565b6000611b4460178361111d565b9150611b4f82611b0e565b602082019050919050565b60006020820190508181036000830152611b7381611b37565b9050919050565b7f494f43207961207265706f727461646f00000000000000000000000000000000600082015250565b6000611bb060108361111d565b9150611bbb82611b7a565b602082019050919050565b60006020820190508181036000830152611bdf81611ba3565b9050919050565b6000611bf1826110af565b9150611bfc836110af565b9250828203905081811115611c1457611c136117ad565b5b92915050565b60006040820190508181036000830152611c348185611169565b90508181036020830152611c488184611169565b90509392505050565b600081905092915050565b6000611c6782611112565b611c718185611c51565b9350611c8181856020860161112e565b80840191505092915050565b6000611c998284611c5c565b915081905092915050565b60008154611cb18161174d565b611cbb8186611c51565b94506001821660008114611cd65760018114611ceb57611d1e565b60ff1983168652811515820286019350611d1e565b611cf485611824565b60005b83811015611d1657815481890152600182019150602081019050611cf7565b838801955050505b50505092915050565b6000611d338284611ca4565b915081905092915050565b7f4950000000000000000000000000000000000000000000000000000000000000600082015250565b6000611d74600283611c51565b9150611d7f82611d3e565b600282019050919050565b6000611d9582611d67565b9150819050919050565b7f55524c0000000000000000000000000000000000000000000000000000000000600082015250565b6000611dd5600383611c51565b9150611de082611d9f565b600382019050919050565b6000611df682611dc8565b9150819050919050565b7f4861736800000000000000000000000000000000000000000000000000000000600082015250565b6000611e36600483611c51565b9150611e4182611e00565b600482019050919050565b6000611e5782611e29565b9150819050919050565b7f456d61696c000000000000000000000000000000000000000000000000000000600082015250565b6000611e97600583611c51565b9150611ea282611e61565b600582019050919050565b6000611eb882611e8a565b9150819050919050565b6000611ecd826110af565b9150611ed8836110af565b9250828201905080821115611ef057611eef6117ad565b5b9291505056fea26469706673582212208008497d3474a04ff666595cd2ebf5e5910da7de4bbafde1ce39bfe690c659ab64736f6c63430008150033",
  "immutableReferences": {},
  "source": "// SPDX-License-Identifier: MIT\r\npragma solidity ^0.8.0;\r\n\r\ncontract Indicador {\r\n\r\n    struct IOC {\r\n        string tipo;\r\n        string valor;\r\n        address reportadoPor;\r\n        uint256 fechaReporte;\r\n    }\r\n\r\n    mapping(uint256 => IOC) private iocs;  \r\n    uint256 private totalIOCs = 0;\r\n\r\n    // Una lista de tipos de IOC permitidos\r\n    string[] private tiposPermitidos;\r\n\r\n    constructor() {\r\n        // Inicializar la lista con algunos tipos comunes\r\n        tiposPermitidos.push(\"IP\");\r\n        tiposPermitidos.push(\"URL\");\r\n        tiposPermitidos.push(\"Hash\");\r\n        tiposPermitidos.push(\"Email\");\r\n        // Puedes aadir ms tipos aqu\r\n    }\r\n\r\n\r\n    function agregarTipoPermitido(string memory _nuevoTipo) public {\r\n        // Aqu puedes agregar controles de acceso si es necesario\r\n        tiposPermitidos.push(_nuevoTipo);\r\n    }\r\n\r\n    function esTipoPermitido(string memory _tipo) private view returns (bool) {\r\n        for (uint i = 0; i < tiposPermitidos.length; i++) {\r\n            if (keccak256(abi.encodePacked(_tipo)) == keccak256(abi.encodePacked(tiposPermitidos[i]))) {\r\n                return true;\r\n            }\r\n        }\r\n        return false;\r\n    }\r\n\r\n    function validarFormato(string memory _tipo, string memory _valor) private pure returns (bool) {\r\n        bytes memory valor = bytes(_valor);\r\n\r\n        if (keccak256(abi.encodePacked(_tipo)) == keccak256(abi.encodePacked(\"IP\"))) {\r\n            // Validacin bsica de IP: verificar la presencia de puntos como un ejemplo simple\r\n            return contarCaracteres(valor, '.') == 3;\r\n        } else if (keccak256(abi.encodePacked(_tipo)) == keccak256(abi.encodePacked(\"URL\"))) {\r\n            // Validacin bsica de URL: verificar la presencia de \"http://\" o \"https://\"\r\n            return contieneSubcadena(_valor, \"http://\") || contieneSubcadena(_valor, \"https://\");\r\n        } else if (keccak256(abi.encodePacked(_tipo)) == keccak256(abi.encodePacked(\"Hash\"))) {\r\n            // Validacin bsica de Hash: longitud fija, por ejemplo, para un hash SHA-256\r\n            return valor.length == 64;\r\n        } else if (keccak256(abi.encodePacked(_tipo)) == keccak256(abi.encodePacked(\"Email\"))) {\r\n            // Validacin bsica de Email: verificar la presencia de '@'\r\n            return contarCaracteres(valor, '@') == 1;\r\n        }\r\n\r\n        return false;\r\n    }\r\n\r\n    function contarCaracteres(bytes memory fuente, bytes1 caracter) private pure returns (uint256) {\r\n        uint256 contador = 0;\r\n        for (uint256 i = 0; i < fuente.length; i++) {\r\n            if (fuente[i] == caracter) {\r\n                contador++;\r\n            }\r\n        }\r\n        return contador;\r\n    }\r\n\r\n    function contieneSubcadena(string memory cadena, string memory subcadena) private pure returns (bool) {\r\n        bytes memory cadenaBytes = bytes(cadena);\r\n        bytes memory subcadenaBytes = bytes(subcadena);\r\n\r\n        if (cadenaBytes.length < subcadenaBytes.length) {\r\n            return false;\r\n        }\r\n\r\n        for (uint256 i = 0; i <= cadenaBytes.length - subcadenaBytes.length; i++) {\r\n            bool subcadenaEncontrada = true;\r\n            for (uint256 j = 0; j < subcadenaBytes.length; j++) {\r\n                if (cadenaBytes[i + j] != subcadenaBytes[j]) {\r\n                    subcadenaEncontrada = false;\r\n                    break;\r\n                }\r\n            }\r\n            if (subcadenaEncontrada) {\r\n                return true;\r\n            }\r\n        }\r\n\r\n        return false;\r\n    }\r\n\r\n\r\n    // Eventos para registrar acciones\r\n    event IOCAdded(uint256 indexed id, string tipo, string valor);\r\n    event IOCUpdated(uint256 indexed id, string tipo, string valor);\r\n    event IOCDeleted(uint256 indexed id);\r\n\r\n    // Agregar un nuevo IOC\r\n    function agregarIOC(string memory _tipo, string memory _valor) public{\r\n        require(esTipoPermitido(_tipo), \"Tipo de IOC no permitido\");\r\n        require(validarFormato(_tipo, _valor), \"Formato de IOC invalido\");\r\n        require(!esIOCReportado(_valor), \"IOC ya reportado\");\r\n        IOC memory nuevoIOC = IOC({\r\n            tipo: _tipo,\r\n            valor: _valor,\r\n            reportadoPor: msg.sender,\r\n            fechaReporte: block.timestamp\r\n        });\r\n\r\n        iocs[totalIOCs] = nuevoIOC;\r\n        totalIOCs++;\r\n        emit IOCAdded(totalIOCs - 1, _tipo, _valor);// Notificar a los usuarios que han agregado un nuevo IOC con \r\n                                                    //su ID y el tipo y valor de forma asncrona para que se puedan seguir con el \r\n                                                    //resto de acciones sin tener que esperar a que se complete la transaccin\r\n    }\r\n\r\n    // Actualizar un IOC existente\r\n    function actualizarIOC(uint256 _id, string memory _tipo, string memory _valor) public {\r\n        require(_id < totalIOCs, \"IOC no existe\");\r\n        require(esTipoPermitido(_tipo), \"Tipo de IOC no permitido\");\r\n        require(validarFormato(_tipo, _valor), \"Formato de IOC invalido\");\r\n        require(!esIOCReportado(_valor), \"IOC ya reportado\");\r\n        IOC storage ioc = iocs[_id];\r\n        ioc.tipo = _tipo;\r\n        ioc.valor = _valor;\r\n        emit IOCUpdated(_id, _tipo, _valor);\r\n    }\r\n\r\n    // Eliminar un IOC\r\n    function eliminarIOC(uint256 _id) public {\r\n        require(_id < totalIOCs, \"IOC no existe\");\r\n        delete iocs[_id];\r\n        emit IOCDeleted(_id);\r\n    }\r\n\r\n    function obtenerIOC(uint256 _id) public view returns (string memory tipo, string memory valor, address reportadoPor, uint256 fechaReporte) {\r\n        require(_id < totalIOCs, \"IOC no existe\");\r\n        IOC storage ioc = iocs[_id];\r\n        return (ioc.tipo, ioc.valor, ioc.reportadoPor, ioc.fechaReporte);\r\n    }\r\n\r\n    function obtenerTodosIOCs() public view returns (IOC[] memory) {\r\n    IOC[] memory todos = new IOC[](totalIOCs);\r\n    for (uint256 i = 0; i < totalIOCs; i++) {\r\n        IOC storage ioc = iocs[i];\r\n        if (ioc.reportadoPor != address(0)) { // Verificar si el IOC existe\r\n            todos[i] = ioc;\r\n        }\r\n    }\r\n        return todos;\r\n    }\r\n\r\n    // Funcin para verificar si un IOC ha sido reportado anteriormente\r\n    function esIOCReportado(string memory _valor) public view returns (bool) {\r\n        for (uint256 i = 0; i < totalIOCs; i++) {\r\n            if (keccak256(abi.encodePacked(iocs[i].valor)) == keccak256(abi.encodePacked(_valor))) {\r\n                return true;\r\n            }\r\n        }\r\n        return false;\r\n    }\r\n}\r\n",
  "sourcePath": "C:\\Users\\difer\\Desktop\\Truffle\\contracts\\contratos\\Indicador.sol",
  "compiler": {
    "name": "solc",
    "version": "0.8.21+commit.d9974bed.Emscripten.clang"
  },
  "schemaVersion": "3.4.16",
  "updatedAt": "2024-05-09T10:01:58.847Z",
  "networkType": "ethereum",
  "devdoc": {
    "kind": "dev",
    "methods": {},
    "version": 1
  },
  "userdoc": {
    "kind": "user",
    "methods": {},
    "version": 1
  }
}