{
  "contractName": "Indicador",
  "abi": [
    {
      "inputs": [],
      "stateMutability": "nonpayable",
      "type": "constructor"
    },
    {
      "anonymous": false,
      "inputs": [
        {
          "indexed": true,
          "internalType": "uint256",
          "name": "id",
          "type": "uint256"
        },
        {
          "indexed": false,
          "internalType": "string",
          "name": "tipo",
          "type": "string"
        },
        {
          "indexed": false,
          "internalType": "string",
          "name": "valor",
          "type": "string"
        }
      ],
      "name": "IOCAdded",
      "type": "event"
    },
    {
      "anonymous": false,
      "inputs": [
        {
          "indexed": true,
          "internalType": "uint256",
          "name": "id",
          "type": "uint256"
        }
      ],
      "name": "IOCDeleted",
      "type": "event"
    },
    {
      "anonymous": false,
      "inputs": [
        {
          "indexed": true,
          "internalType": "uint256",
          "name": "id",
          "type": "uint256"
        },
        {
          "indexed": false,
          "internalType": "string",
          "name": "tipo",
          "type": "string"
        },
        {
          "indexed": false,
          "internalType": "string",
          "name": "valor",
          "type": "string"
        }
      ],
      "name": "IOCUpdated",
      "type": "event"
    },
    {
      "inputs": [],
      "name": "getTiposPermitidos",
      "outputs": [
        {
          "internalType": "string[]",
          "name": "",
          "type": "string[]"
        }
      ],
      "stateMutability": "view",
      "type": "function",
      "constant": true
    },
    {
      "inputs": [
        {
          "internalType": "string",
          "name": "_nuevoTipo",
          "type": "string"
        }
      ],
      "name": "agregarTipoPermitido",
      "outputs": [],
      "stateMutability": "nonpayable",
      "type": "function"
    },
    {
      "inputs": [
        {
          "internalType": "string",
          "name": "_tipo",
          "type": "string"
        },
        {
          "internalType": "string",
          "name": "_valor",
          "type": "string"
        }
      ],
      "name": "validarFormato",
      "outputs": [
        {
          "internalType": "bool",
          "name": "",
          "type": "bool"
        }
      ],
      "stateMutability": "pure",
      "type": "function",
      "constant": true
    },
    {
      "inputs": [
        {
          "internalType": "string",
          "name": "direccionIP",
          "type": "string"
        }
      ],
      "name": "validarIP",
      "outputs": [
        {
          "internalType": "bool",
          "name": "",
          "type": "bool"
        }
      ],
      "stateMutability": "pure",
      "type": "function",
      "constant": true
    },
    {
      "inputs": [
        {
          "internalType": "string",
          "name": "_tipo",
          "type": "string"
        },
        {
          "internalType": "string",
          "name": "_valor",
          "type": "string"
        }
      ],
      "name": "agregarIOC",
      "outputs": [],
      "stateMutability": "nonpayable",
      "type": "function"
    },
    {
      "inputs": [
        {
          "internalType": "uint256",
          "name": "_id",
          "type": "uint256"
        },
        {
          "internalType": "string",
          "name": "_tipo",
          "type": "string"
        },
        {
          "internalType": "string",
          "name": "_valor",
          "type": "string"
        }
      ],
      "name": "actualizarIOC",
      "outputs": [],
      "stateMutability": "nonpayable",
      "type": "function"
    },
    {
      "inputs": [
        {
          "internalType": "uint256",
          "name": "_id",
          "type": "uint256"
        }
      ],
      "name": "eliminarIOC",
      "outputs": [],
      "stateMutability": "nonpayable",
      "type": "function"
    },
    {
      "inputs": [
        {
          "internalType": "uint256",
          "name": "_id",
          "type": "uint256"
        }
      ],
      "name": "obtenerIOC",
      "outputs": [
        {
          "internalType": "string",
          "name": "tipo",
          "type": "string"
        },
        {
          "internalType": "string",
          "name": "valor",
          "type": "string"
        },
        {
          "internalType": "address",
          "name": "reportadoPor",
          "type": "address"
        },
        {
          "internalType": "uint256",
          "name": "fechaReporte",
          "type": "uint256"
        }
      ],
      "stateMutability": "view",
      "type": "function",
      "constant": true
    },
    {
      "inputs": [
        {
          "internalType": "string",
          "name": "valorBuscado",
          "type": "string"
        }
      ],
      "name": "obtenerIOCPorValor",
      "outputs": [
        {
          "internalType": "string",
          "name": "tipo",
          "type": "string"
        },
        {
          "internalType": "string",
          "name": "valor",
          "type": "string"
        },
        {
          "internalType": "address",
          "name": "reportadoPor",
          "type": "address"
        },
        {
          "internalType": "uint256",
          "name": "fechaReporte",
          "type": "uint256"
        }
      ],
      "stateMutability": "view",
      "type": "function",
      "constant": true
    },
    {
      "inputs": [],
      "name": "obtenerTodosIOCs",
      "outputs": [
        {
          "components": [
            {
              "internalType": "string",
              "name": "tipo",
              "type": "string"
            },
            {
              "internalType": "string",
              "name": "valor",
              "type": "string"
            },
            {
              "internalType": "address",
              "name": "reportadoPor",
              "type": "address"
            },
            {
              "internalType": "uint256",
              "name": "fechaReporte",
              "type": "uint256"
            }
          ],
          "internalType": "struct Indicador.IOC[]",
          "name": "",
          "type": "tuple[]"
        }
      ],
      "stateMutability": "view",
      "type": "function",
      "constant": true
    },
    {
      "inputs": [
        {
          "internalType": "string",
          "name": "valorBuscado",
          "type": "string"
        }
      ],
      "name": "obtenerIDPorValor",
      "outputs": [
        {
          "internalType": "uint256",
          "name": "",
          "type": "uint256"
        }
      ],
      "stateMutability": "view",
      "type": "function",
      "constant": true
    },
    {
      "inputs": [
        {
          "internalType": "string",
          "name": "_valor",
          "type": "string"
        }
      ],
      "name": "esIOCReportado",
      "outputs": [
        {
          "internalType": "bool",
          "name": "",
          "type": "bool"
        }
      ],
      "stateMutability": "view",
      "type": "function",
      "constant": true
    }
  ],
  "bytecode": "0x608060405260006001553480156200001657600080fd5b50600280600181540180825580915050600190039060005260206000200160006040518060400160405280600281526020017f4950000000000000000000000000000000000000000000000000000000000000815250909190915090816200007f919062000576565b50600280600181540180825580915050600190039060005260206000200160006040518060400160405280600381526020017f55524c000000000000000000000000000000000000000000000000000000000081525090919091509081620000e8919062000576565b50600280600181540180825580915050600190039060005260206000200160006040518060400160405280600e81526020017f284861736829205348412d3235360000000000000000000000000000000000008152509091909150908162000151919062000576565b50600280600181540180825580915050600190039060005260206000200160006040518060400160405280600581526020017f456d61696c00000000000000000000000000000000000000000000000000000081525090919091509081620001ba919062000576565b50600280600181540180825580915050600190039060005260206000200160006040518060400160405280600a81526020017f284861736829204d4435000000000000000000000000000000000000000000008152509091909150908162000223919062000576565b50600280600181540180825580915050600190039060005260206000200160006040518060400160405280600c81526020017f284861736829205348412d310000000000000000000000000000000000000000815250909190915090816200028c919062000576565b50600280600181540180825580915050600190039060005260206000200160006040518060400160405280600f81526020017f456d61696c205369676e6174757265000000000000000000000000000000000081525090919091509081620002f5919062000576565b506200065d565b600081519050919050565b7f4e487b7100000000000000000000000000000000000000000000000000000000600052604160045260246000fd5b7f4e487b7100000000000000000000000000000000000000000000000000000000600052602260045260246000fd5b600060028204905060018216806200037e57607f821691505b60208210810362000394576200039362000336565b5b50919050565b60008190508160005260206000209050919050565b60006020601f8301049050919050565b600082821b905092915050565b600060088302620003fe7fffffffffffffffffffffffffffffffffffffffffffffffffffffffffffffffff82620003bf565b6200040a8683620003bf565b95508019841693508086168417925050509392505050565b6000819050919050565b6000819050919050565b600062000457620004516200044b8462000422565b6200042c565b62000422565b9050919050565b6000819050919050565b620004738362000436565b6200048b62000482826200045e565b848454620003cc565b825550505050565b600090565b620004a262000493565b620004af81848462000468565b505050565b5b81811015620004d757620004cb60008262000498565b600181019050620004b5565b5050565b601f8211156200052657620004f0816200039a565b620004fb84620003af565b810160208510156200050b578190505b620005236200051a85620003af565b830182620004b4565b50505b505050565b600082821c905092915050565b60006200054b600019846008026200052b565b1980831691505092915050565b600062000566838362000538565b9150826002028217905092915050565b6200058182620002fc565b67ffffffffffffffff8111156200059d576200059c62000307565b5b620005a9825462000365565b620005b6828285620004db565b600060209050601f831160018114620005ee5760008415620005d9578287015190505b620005e5858262000558565b86555062000655565b601f198416620005fe866200039a565b60005b82811015620006285784890151825560018201915060208501945060208101905062000601565b8683101562000648578489015162000644601f89168262000538565b8355505b6001600288020188555050505b505050505050565b612b7f806200066d6000396000f3fe608060405234801561001057600080fd5b50600436106100b45760003560e01c8063a3e41c3211610071578063a3e41c32146101a5578063ba92e435146101d5578063ccd666d214610205578063e8e4633314610221578063f6b7af9414610251578063f79621c21461026d576100b4565b80630e2cbbee146100b9578063390b6116146100e957806340e8c6371461011c57806355f40ba91461014f5780636143a4ec1461016d5780639290aaa214610189575b600080fd5b6100d360048036038101906100ce9190611bc8565b61028b565b6040516100e09190611c5b565b60405180910390f35b61010360048036038101906100fe9190611cac565b610551565b6040516101139493929190611da8565b60405180910390f35b61013660048036038101906101319190611dfb565b61070b565b6040516101469493929190611da8565b60405180910390f35b61015761094a565b6040516101649190611fd8565b60405180910390f35b61018760048036038101906101829190611dfb565b610bec565b005b6101a3600480360381019061019e9190611bc8565b610c24565b005b6101bf60048036038101906101ba9190611dfb565b610e32565b6040516101cc9190611ffa565b60405180910390f35b6101ef60048036038101906101ea9190611dfb565b610f08565b6040516101fc9190611c5b565b60405180910390f35b61021f600480360381019061021a9190611cac565b610fb1565b005b61023b60048036038101906102369190611dfb565b611089565b6040516102489190611c5b565b60405180910390f35b61026b60048036038101906102669190612015565b61112a565b005b6102756112c2565b6040516102829190612162565b60405180910390f35b6000808290506040516020016102a0906121db565b60405160208183030381529060405280519060200120846040516020016102c79190612221565b60405160208183030381529060405280519060200120036102f3576102eb83610f08565b91505061054b565b60405160200161030290612284565b60405160208183030381529060405280519060200120846040516020016103299190612221565b60405160208183030381529060405280519060200120036103555761034d8361139b565b91505061054b565b604051602001610364906122e5565b604051602081830303815290604052805190602001208460405160200161038b9190612221565b60405160208183030381529060405280519060200120036103b7576103af81611443565b91505061054b565b6040516020016103c690612346565b60405160208183030381529060405280519060200120846040516020016103ed9190612221565b604051602081830303815290604052805190602001200361041b57610413816040611636565b91505061054b565b60405160200161042a906123a7565b60405160208183030381529060405280519060200120846040516020016104519190612221565b604051602081830303815290604052805190602001200361047f57610477816020611636565b91505061054b565b60405160200161048e90612408565b60405160208183030381529060405280519060200120846040516020016104b59190612221565b60405160208183030381529060405280519060200120036104e3576104db816028611636565b91505061054b565b6040516020016104f290612469565b60405160208183030381529060405280519060200120846040516020016105199190612221565b60405160208183030381529060405280519060200120036105455761053d836118fa565b91505061054b565b60009150505b92915050565b606080600080600154851061059b576040517f08c379a0000000000000000000000000000000000000000000000000000000008152600401610592906124ca565b60405180910390fd5b6000806000878152602001908152602001600020905080600001816001018260020160009054906101000a900473ffffffffffffffffffffffffffffffffffffffff1683600301548380546105ef90612519565b80601f016020809104026020016040519081016040528092919081815260200182805461061b90612519565b80156106685780601f1061063d57610100808354040283529160200191610668565b820191906000526020600020905b81548152906001019060200180831161064b57829003601f168201915b5050505050935082805461067b90612519565b80601f01602080910402602001604051908101604052809291908181526020018280546106a790612519565b80156106f45780601f106106c9576101008083540402835291602001916106f4565b820191906000526020600020905b8154815290600101906020018083116106d757829003601f168201915b505050505092509450945094509450509193509193565b60608060008060005b600154811015610907578560405160200161072f9190612221565b6040516020818303038152906040528051906020012060008083815260200190815260200160002060010160405160200161076a91906125e2565b60405160208183030381529060405280519060200120036108f4576000806000838152602001908152602001600020905080600001816001018260020160009054906101000a900473ffffffffffffffffffffffffffffffffffffffff1683600301548380546107d990612519565b80601f016020809104026020016040519081016040528092919081815260200182805461080590612519565b80156108525780601f1061082757610100808354040283529160200191610852565b820191906000526020600020905b81548152906001019060200180831161083557829003601f168201915b5050505050935082805461086590612519565b80601f016020809104026020016040519081016040528092919081815260200182805461089190612519565b80156108de5780601f106108b3576101008083540402835291602001916108de565b820191906000526020600020905b8154815290600101906020018083116108c157829003601f168201915b5050505050925095509550955095505050610943565b80806108ff90612628565b915050610714565b506040517f08c379a000000000000000000000000000000000000000000000000000000000815260040161093a906126e2565b60405180910390fd5b9193509193565b6060600060015467ffffffffffffffff81111561096a57610969611a9d565b5b6040519080825280602002602001820160405280156109a357816020015b6109906119d3565b8152602001906001900390816109885790505b50905060005b600154811015610be45760008060008381526020019081526020016000209050600073ffffffffffffffffffffffffffffffffffffffff168160020160009054906101000a900473ffffffffffffffffffffffffffffffffffffffff1673ffffffffffffffffffffffffffffffffffffffff1614610bd05780604051806080016040529081600082018054610a3d90612519565b80601f0160208091040260200160405190810160405280929190818152602001828054610a6990612519565b8015610ab65780601f10610a8b57610100808354040283529160200191610ab6565b820191906000526020600020905b815481529060010190602001808311610a9957829003601f168201915b50505050508152602001600182018054610acf90612519565b80601f0160208091040260200160405190810160405280929190818152602001828054610afb90612519565b8015610b485780601f10610b1d57610100808354040283529160200191610b48565b820191906000526020600020905b815481529060010190602001808311610b2b57829003601f168201915b505050505081526020016002820160009054906101000a900473ffffffffffffffffffffffffffffffffffffffff1673ffffffffffffffffffffffffffffffffffffffff1673ffffffffffffffffffffffffffffffffffffffff168152602001600382015481525050838381518110610bc457610bc3612702565b5b60200260200101819052505b508080610bdc90612628565b9150506109a9565b508091505090565b600281908060018154018082558091505060019003906000526020600020016000909190919091509081610c2091906128c8565b5050565b610c2d82611908565b610c6c576040517f08c379a0000000000000000000000000000000000000000000000000000000008152600401610c63906129e6565b60405180910390fd5b610c76828261028b565b610cb5576040517f08c379a0000000000000000000000000000000000000000000000000000000008152600401610cac90612a52565b60405180910390fd5b610cbe81611089565b15610cfe576040517f08c379a0000000000000000000000000000000000000000000000000000000008152600401610cf590612abe565b60405180910390fd5b600060405180608001604052808481526020018381526020013373ffffffffffffffffffffffffffffffffffffffff1681526020014281525090508060008060015481526020019081526020016000206000820151816000019081610d6391906128c8565b506020820151816001019081610d7991906128c8565b5060408201518160020160006101000a81548173ffffffffffffffffffffffffffffffffffffffff021916908373ffffffffffffffffffffffffffffffffffffffff1602179055506060820151816003015590505060016000815480929190610de190612628565b919050555060018054610df49190612ade565b7fd837ff65a2f55c0e1efeacfd0f47e4e70282337f778009e58819881bb31d68518484604051610e25929190612b12565b60405180910390a2505050565b600080600090505b600154811015610ec75782604051602001610e559190612221565b60405160208183030381529060405280519060200120600080838152602001908152602001600020600101604051602001610e9091906125e2565b6040516020818303038152906040528051906020012003610eb45780915050610f03565b8080610ebf90612628565b915050610e3a565b506040517f08c379a0000000000000000000000000000000000000000000000000000000008152600401610efa906126e2565b60405180910390fd5b919050565b6000808290506000805b8251811015610fa3577f2e00000000000000000000000000000000000000000000000000000000000000838281518110610f4f57610f4e612702565b5b602001015160f81c60f81b7effffffffffffffffffffffffffffffffffffffffffffffffffffffffffffff191603610f90578180610f8c90612628565b9250505b8080610f9b90612628565b915050610f12565b506003811492505050919050565b6001548110610ff5576040517f08c379a0000000000000000000000000000000000000000000000000000000008152600401610fec906124ca565b60405180910390fd5b600080828152602001908152602001600020600080820160006110189190611a11565b6001820160006110289190611a11565b6002820160006101000a81549073ffffffffffffffffffffffffffffffffffffffff021916905560038201600090555050807fece49e958a603088b69df25dbed8fa3def065badcd84c0fd126f55d875b3e20460405160405180910390a250565b600080600090505b60015481101561111f57826040516020016110ac9190612221565b604051602081830303815290604052805190602001206000808381526020019081526020016000206001016040516020016110e791906125e2565b604051602081830303815290604052805190602001200361110c576001915050611125565b808061111790612628565b915050611091565b50600090505b919050565b600154831061116e576040517f08c379a0000000000000000000000000000000000000000000000000000000008152600401611165906124ca565b60405180910390fd5b61117782611908565b6111b6576040517f08c379a00000000000000000000000000000000000000000000000000000000081526004016111ad906129e6565b60405180910390fd5b6111c0828261028b565b6111ff576040517f08c379a00000000000000000000000000000000000000000000000000000000081526004016111f690612a52565b60405180910390fd5b61120881611089565b15611248576040517f08c379a000000000000000000000000000000000000000000000000000000000815260040161123f90612abe565b60405180910390fd5b600080600085815260200190815260200160002090508281600001908161126f91906128c8565b508181600101908161128191906128c8565b50837f9893f2f232e4ab0d3d56384866504b1d510affb204a862b80a809cdeb61079db84846040516112b4929190612b12565b60405180910390a250505050565b60606002805480602002602001604051908101604052809291908181526020016000905b8282101561139257838290600052602060002001805461130590612519565b80601f016020809104026020016040519081016040528092919081815260200182805461133190612519565b801561137e5780601f106113535761010080835404028352916020019161137e565b820191906000526020600020905b81548152906001019060200180831161136157829003601f168201915b5050505050815260200190600101906112e6565b50505050905090565b6000808290506008815110156113b557600091505061143e565b6113f4836040518060400160405280600781526020017f687474703a2f2f000000000000000000000000000000000000000000000000008152506119b5565b8061143a5750611439836040518060400160405280600881526020017f68747470733a2f2f0000000000000000000000000000000000000000000000008152506119b5565b5b9150505b919050565b6000807fffffffffffffffffffffffffffffffffffffffffffffffffffffffffffffffff90506000805b84518110156115fe577f40000000000000000000000000000000000000000000000000000000000000008582815181106114aa576114a9612702565b5b602001015160f81c60f81b7effffffffffffffffffffffffffffffffffffffffffffffffffffffffffffff19160361153b577fffffffffffffffffffffffffffffffffffffffffffffffffffffffffffffffff8314158061150b5750600081145b8061152257506001855161151f9190612ade565b81145b156115335760009350505050611631565b8092506115eb565b7f2e0000000000000000000000000000000000000000000000000000000000000085828151811061156f5761156e612702565b5b602001015160f81c60f81b7effffffffffffffffffffffffffffffffffffffffffffffffffffffffffffff19161480156115c957507fffffffffffffffffffffffffffffffffffffffffffffffffffffffffffffffff8314155b80156115e057506001816115dd9190612ade565b83105b156115ea57600191505b5b80806115f690612628565b91505061146d565b507fffffffffffffffffffffffffffffffffffffffffffffffffffffffffffffffff821415801561162c5750805b925050505b919050565b60008183511461164957600090506118f4565b60005b83518110156118ee577f300000000000000000000000000000000000000000000000000000000000000084828151811061168957611688612702565b5b602001015160f81c60f81b7effffffffffffffffffffffffffffffffffffffffffffffffffffffffffffff19161015801561172357507f39000000000000000000000000000000000000000000000000000000000000008482815181106116f3576116f2612702565b5b602001015160f81c60f81b7effffffffffffffffffffffffffffffffffffffffffffffffffffffffffffff191611155b806117f857507f610000000000000000000000000000000000000000000000000000000000000084828151811061175d5761175c612702565b5b602001015160f81c60f81b7effffffffffffffffffffffffffffffffffffffffffffffffffffffffffffff1916101580156117f757507f66000000000000000000000000000000000000000000000000000000000000008482815181106117c7576117c6612702565b5b602001015160f81c60f81b7effffffffffffffffffffffffffffffffffffffffffffffffffffffffffffff191611155b5b806118cd57507f410000000000000000000000000000000000000000000000000000000000000084828151811061183257611831612702565b5b602001015160f81c60f81b7effffffffffffffffffffffffffffffffffffffffffffffffffffffffffffff1916101580156118cc57507f460000000000000000000000000000000000000000000000000000000000000084828151811061189c5761189b612702565b5b602001015160f81c60f81b7effffffffffffffffffffffffffffffffffffffffffffffffffffffffffffff191611155b5b6118db5760009150506118f4565b80806118e690612628565b91505061164c565b50600190505b92915050565b6000600a8251119050919050565b600080600090505b6002805490508110156119aa576002818154811061193157611930612702565b5b9060005260206000200160405160200161194b91906125e2565b60405160208183030381529060405280519060200120836040516020016119729190612221565b60405160208183030381529060405280519060200120036119975760019150506119b0565b80806119a290612628565b915050611910565b50600090505b919050565b600081518351101580156119cb57506000835114155b905092915050565b60405180608001604052806060815260200160608152602001600073ffffffffffffffffffffffffffffffffffffffff168152602001600081525090565b508054611a1d90612519565b6000825580601f10611a2f5750611a4e565b601f016020900490600052602060002090810190611a4d9190611a51565b5b50565b5b80821115611a6a576000816000905550600101611a52565b5090565b6000604051905090565b600080fd5b600080fd5b600080fd5b600080fd5b6000601f19601f8301169050919050565b7f4e487b7100000000000000000000000000000000000000000000000000000000600052604160045260246000fd5b611ad582611a8c565b810181811067ffffffffffffffff82111715611af457611af3611a9d565b5b80604052505050565b6000611b07611a6e565b9050611b138282611acc565b919050565b600067ffffffffffffffff821115611b3357611b32611a9d565b5b611b3c82611a8c565b9050602081019050919050565b82818337600083830152505050565b6000611b6b611b6684611b18565b611afd565b905082815260208101848484011115611b8757611b86611a87565b5b611b92848285611b49565b509392505050565b600082601f830112611baf57611bae611a82565b5b8135611bbf848260208601611b58565b91505092915050565b60008060408385031215611bdf57611bde611a78565b5b600083013567ffffffffffffffff811115611bfd57611bfc611a7d565b5b611c0985828601611b9a565b925050602083013567ffffffffffffffff811115611c2a57611c29611a7d565b5b611c3685828601611b9a565b9150509250929050565b60008115159050919050565b611c5581611c40565b82525050565b6000602082019050611c706000830184611c4c565b92915050565b6000819050919050565b611c8981611c76565b8114611c9457600080fd5b50565b600081359050611ca681611c80565b92915050565b600060208284031215611cc257611cc1611a78565b5b6000611cd084828501611c97565b91505092915050565b600081519050919050565b600082825260208201905092915050565b60005b83811015611d13578082015181840152602081019050611cf8565b60008484015250505050565b6000611d2a82611cd9565b611d348185611ce4565b9350611d44818560208601611cf5565b611d4d81611a8c565b840191505092915050565b600073ffffffffffffffffffffffffffffffffffffffff82169050919050565b6000611d8382611d58565b9050919050565b611d9381611d78565b82525050565b611da281611c76565b82525050565b60006080820190508181036000830152611dc28187611d1f565b90508181036020830152611dd68186611d1f565b9050611de56040830185611d8a565b611df26060830184611d99565b95945050505050565b600060208284031215611e1157611e10611a78565b5b600082013567ffffffffffffffff811115611e2f57611e2e611a7d565b5b611e3b84828501611b9a565b91505092915050565b600081519050919050565b600082825260208201905092915050565b6000819050602082019050919050565b600082825260208201905092915050565b6000611e8c82611cd9565b611e968185611e70565b9350611ea6818560208601611cf5565b611eaf81611a8c565b840191505092915050565b611ec381611d78565b82525050565b611ed281611c76565b82525050565b60006080830160008301518482036000860152611ef58282611e81565b91505060208301518482036020860152611f0f8282611e81565b9150506040830151611f246040860182611eba565b506060830151611f376060860182611ec9565b508091505092915050565b6000611f4e8383611ed8565b905092915050565b6000602082019050919050565b6000611f6e82611e44565b611f788185611e4f565b935083602082028501611f8a85611e60565b8060005b85811015611fc65784840389528151611fa78582611f42565b9450611fb283611f56565b925060208a01995050600181019050611f8e565b50829750879550505050505092915050565b60006020820190508181036000830152611ff28184611f63565b905092915050565b600060208201905061200f6000830184611d99565b92915050565b60008060006060848603121561202e5761202d611a78565b5b600061203c86828701611c97565b935050602084013567ffffffffffffffff81111561205d5761205c611a7d565b5b61206986828701611b9a565b925050604084013567ffffffffffffffff81111561208a57612089611a7d565b5b61209686828701611b9a565b9150509250925092565b600081519050919050565b600082825260208201905092915050565b6000819050602082019050919050565b60006120d88383611e81565b905092915050565b6000602082019050919050565b60006120f8826120a0565b61210281856120ab565b935083602082028501612114856120bc565b8060005b85811015612150578484038952815161213185826120cc565b945061213c836120e0565b925060208a01995050600181019050612118565b50829750879550505050505092915050565b6000602082019050818103600083015261217c81846120ed565b905092915050565b600081905092915050565b7f4950000000000000000000000000000000000000000000000000000000000000600082015250565b60006121c5600283612184565b91506121d08261218f565b600282019050919050565b60006121e6826121b8565b9150819050919050565b60006121fb82611cd9565b6122058185612184565b9350612215818560208601611cf5565b80840191505092915050565b600061222d82846121f0565b915081905092915050565b7f55524c0000000000000000000000000000000000000000000000000000000000600082015250565b600061226e600383612184565b915061227982612238565b600382019050919050565b600061228f82612261565b9150819050919050565b7f456d61696c000000000000000000000000000000000000000000000000000000600082015250565b60006122cf600583612184565b91506122da82612299565b600582019050919050565b60006122f0826122c2565b9150819050919050565b7f284861736829205348412d323536000000000000000000000000000000000000600082015250565b6000612330600e83612184565b915061233b826122fa565b600e82019050919050565b600061235182612323565b9150819050919050565b7f284861736829204d443500000000000000000000000000000000000000000000600082015250565b6000612391600a83612184565b915061239c8261235b565b600a82019050919050565b60006123b282612384565b9150819050919050565b7f284861736829205348412d310000000000000000000000000000000000000000600082015250565b60006123f2600c83612184565b91506123fd826123bc565b600c82019050919050565b6000612413826123e5565b9150819050919050565b7f456d61696c205369676e61747572650000000000000000000000000000000000600082015250565b6000612453600f83612184565b915061245e8261241d565b600f82019050919050565b600061247482612446565b9150819050919050565b7f494f43206e6f2065786973746500000000000000000000000000000000000000600082015250565b60006124b4600d83611ce4565b91506124bf8261247e565b602082019050919050565b600060208201905081810360008301526124e3816124a7565b9050919050565b7f4e487b7100000000000000000000000000000000000000000000000000000000600052602260045260246000fd5b6000600282049050600182168061253157607f821691505b602082108103612544576125436124ea565b5b50919050565b60008190508160005260206000209050919050565b6000815461256c81612519565b6125768186612184565b9450600182166000811461259157600181146125a6576125d9565b60ff19831686528115158202860193506125d9565b6125af8561254a565b60005b838110156125d1578154818901526001820191506020810190506125b2565b838801955050505b50505092915050565b60006125ee828461255f565b915081905092915050565b7f4e487b7100000000000000000000000000000000000000000000000000000000600052601160045260246000fd5b600061263382611c76565b91507fffffffffffffffffffffffffffffffffffffffffffffffffffffffffffffffff8203612665576126646125f9565b5b600182019050919050565b7f494f43206e6f20656e636f6e747261646f20636f6e20656c2076616c6f72207060008201527f726f706f7263696f6e61646f0000000000000000000000000000000000000000602082015250565b60006126cc602c83611ce4565b91506126d782612670565b604082019050919050565b600060208201905081810360008301526126fb816126bf565b9050919050565b7f4e487b7100000000000000000000000000000000000000000000000000000000600052603260045260246000fd5b60006020601f8301049050919050565b600082821b905092915050565b60006008830261277e7fffffffffffffffffffffffffffffffffffffffffffffffffffffffffffffffff82612741565b6127888683612741565b95508019841693508086168417925050509392505050565b6000819050919050565b60006127c56127c06127bb84611c76565b6127a0565b611c76565b9050919050565b6000819050919050565b6127df836127aa565b6127f36127eb826127cc565b84845461274e565b825550505050565b600090565b6128086127fb565b6128138184846127d6565b505050565b5b818110156128375761282c600082612800565b600181019050612819565b5050565b601f82111561287c5761284d8161254a565b61285684612731565b81016020851015612865578190505b61287961287185612731565b830182612818565b50505b505050565b600082821c905092915050565b600061289f60001984600802612881565b1980831691505092915050565b60006128b8838361288e565b9150826002028217905092915050565b6128d182611cd9565b67ffffffffffffffff8111156128ea576128e9611a9d565b5b6128f48254612519565b6128ff82828561283b565b600060209050601f8311600181146129325760008415612920578287015190505b61292a85826128ac565b865550612992565b601f1984166129408661254a565b60005b8281101561296857848901518255600182019150602085019450602081019050612943565b868310156129855784890151612981601f89168261288e565b8355505b6001600288020188555050505b505050505050565b7f5469706f20646520494f43206e6f207065726d697469646f0000000000000000600082015250565b60006129d0601883611ce4565b91506129db8261299a565b602082019050919050565b600060208201905081810360008301526129ff816129c3565b9050919050565b7f466f726d61746f20646520494f4320696e76616c69646f000000000000000000600082015250565b6000612a3c601783611ce4565b9150612a4782612a06565b602082019050919050565b60006020820190508181036000830152612a6b81612a2f565b9050919050565b7f494f43207961207265706f727461646f00000000000000000000000000000000600082015250565b6000612aa8601083611ce4565b9150612ab382612a72565b602082019050919050565b60006020820190508181036000830152612ad781612a9b565b9050919050565b6000612ae982611c76565b9150612af483611c76565b9250828203905081811115612b0c57612b0b6125f9565b5b92915050565b60006040820190508181036000830152612b2c8185611d1f565b90508181036020830152612b408184611d1f565b9050939250505056fea2646970667358221220eeaa7b491abd84c572c562d546123e2c1a0df8cd1e97bc44a6399f6ab58dfc9e64736f6c63430008150033",
  "immutableReferences": {},
  "source": "// SPDX-License-Identifier: MIT\r\npragma solidity ^0.8.0;\r\n\r\ncontract Indicador {\r\n\r\n    struct IOC {\r\n        string tipo;\r\n        string valor;\r\n        address reportadoPor;\r\n        uint256 fechaReporte;\r\n    }\r\n\r\n    mapping(uint256 => IOC) private iocs;  \r\n    uint256 private totalIOCs = 0;\r\n\r\n    // Eventos para registrar acciones\r\n    event IOCAdded(uint256 indexed id, string tipo, string valor);\r\n    event IOCUpdated(uint256 indexed id, string tipo, string valor);\r\n    event IOCDeleted(uint256 indexed id);\r\n\r\n    // Una lista de tipos de IOC permitidos\r\n    string[] private tiposPermitidos;\r\n    ////////////////////////////////////////////////////////////\r\n    ////////////////////TIPOS////////////////////////////////\r\n    ////////////////////////////////////////////////////////////\r\n    constructor() {\r\n        // Inicializar la lista con algunos tipos comunes\r\n        tiposPermitidos.push(\"IP\");\r\n        tiposPermitidos.push(\"URL\");\r\n        tiposPermitidos.push(\"(Hash) SHA-256\");\r\n        tiposPermitidos.push(\"Email\");\r\n        tiposPermitidos.push(\"(Hash) MD5\");\r\n        tiposPermitidos.push(\"(Hash) SHA-1\");\r\n        tiposPermitidos.push(\"Email Signature\");\r\n    }\r\n\r\n    function getTiposPermitidos() public view returns (string[] memory) {\r\n        return tiposPermitidos;\r\n    }\r\n\r\n    function agregarTipoPermitido(string memory _nuevoTipo) public {\r\n        // Aqu puedes agregar controles de acceso si es necesario\r\n        tiposPermitidos.push(_nuevoTipo);\r\n    }\r\n\r\n    function esTipoPermitido(string memory _tipo) private view returns (bool) {\r\n        for (uint i = 0; i < tiposPermitidos.length; i++) {\r\n            if (keccak256(abi.encodePacked(_tipo)) == keccak256(abi.encodePacked(tiposPermitidos[i]))) {\r\n                return true;\r\n            }\r\n        }\r\n        return false;\r\n    }\r\n\r\n    ////////////////////////////////////////////////////////////\r\n    ////////////////////VALIDADORES////////////////////////////////\r\n    ////////////////////////////////////////////////////////////\r\n    function validarFormato(string memory _tipo, string memory _valor) public pure returns (bool) {\r\n        bytes memory valor = bytes(_valor);\r\n\r\n        if (keccak256(abi.encodePacked(_tipo)) == keccak256(abi.encodePacked(\"IP\"))) {\r\n            return validarIP(_valor);\r\n        } else if (keccak256(abi.encodePacked(_tipo)) == keccak256(abi.encodePacked(\"URL\"))) {\r\n            return validarURL(_valor);\r\n        } else if (keccak256(abi.encodePacked(_tipo)) == keccak256(abi.encodePacked(\"Email\"))) {\r\n            return validarEmail(valor);\r\n        } else if (keccak256(abi.encodePacked(_tipo)) == keccak256(abi.encodePacked(\"(Hash) SHA-256\"))) {\r\n            return validarHash(valor, 64);\r\n        } else if (keccak256(abi.encodePacked(_tipo)) == keccak256(abi.encodePacked(\"(Hash) MD5\"))) {\r\n            return validarHash(valor, 32);\r\n        } else if (keccak256(abi.encodePacked(_tipo)) == keccak256(abi.encodePacked(\"(Hash) SHA-1\"))) {\r\n            return validarHash(valor, 40);\r\n        } else if (keccak256(abi.encodePacked(_tipo)) == keccak256(abi.encodePacked(\"Email Signature\"))) {\r\n            return validarEmailSignature(_valor);\r\n        }\r\n\r\n        return false;\r\n    }\r\n\r\n    // Validadores especficos\r\n    function validarIP(string memory direccionIP) public pure returns (bool) {\r\n        bytes memory bytesDireccion = bytes(direccionIP);\r\n        uint256 puntos = 0;\r\n        // Recorrer cada carcter de la direccin IP\r\n        for (uint256 i = 0; i < bytesDireccion.length; i++) {\r\n            // Contar solo los puntos que separan los segmentos\r\n            if (bytesDireccion[i] == '.') {\r\n                puntos++;\r\n            }\r\n        }\r\n        // Una direccin IP vlida debe tener exactamente tres puntos (cuatro segmentos)\r\n        return puntos == 3;\r\n    }\r\n\r\n    function validarURL(string memory _valor) private pure returns (bool) {\r\n        bytes memory strBytes = bytes(_valor);\r\n        if (strBytes.length < 8) {\r\n            return false;\r\n        }\r\n        return (contieneSubcadena(_valor, \"http://\") || contieneSubcadena(_valor, \"https://\"));\r\n    }\r\n\r\n    function validarHash(bytes memory valor, uint256 expectedLength) private pure returns (bool) {\r\n        if (valor.length != expectedLength) return false;\r\n        for (uint256 i = 0; i < valor.length; i++) {\r\n            if (!(valor[i] >= '0' && valor[i] <= '9' || valor[i] >= 'a' && valor[i] <= 'f' || valor[i] >= 'A' && valor[i] <= 'F')) {\r\n                return false;\r\n            }\r\n        }\r\n        return true;\r\n    }\r\n\r\n    function validarEmail(bytes memory valor) private pure returns (bool) {\r\n        int256 atPosition = -1;\r\n        bool puntoDespuesDeAt = false;\r\n        for (uint256 i = 0; i < valor.length; i++) {\r\n            if (valor[i] == '@') {\r\n                if (atPosition != -1 || i == 0 || i == valor.length - 1) return false;\r\n                atPosition = int256(i);\r\n            } else if (valor[i] == '.' && atPosition != -1 && uint256(atPosition) < i - 1) {\r\n                puntoDespuesDeAt = true;\r\n            }\r\n        }\r\n        return atPosition != -1 && puntoDespuesDeAt;\r\n    }\r\n\r\n    \r\n    function validarEmailSignature(string memory valor) private pure returns (bool) {\r\n        // Un validador simplificado podra verificar la presencia de patrones comunes en las firmas\r\n        return bytes(valor).length > 10;  // Ejemplo muy bsico, se puede mejorar\r\n    }\r\n\r\n    // Utilidades\r\n    function contieneSubcadena(string memory _valor, string memory subcadena) private pure returns (bool) {\r\n        return bytes(_valor).length >= bytes(subcadena).length && bytes(_valor).length != 0;\r\n    }\r\n\r\n    function contarCaracteres(bytes memory fuente, bytes1 caracter) private pure returns (uint256) {\r\n        uint256 contador = 0;\r\n        for (uint256 i = 0; i < fuente.length; i++) {\r\n            if (fuente[i] == caracter) {\r\n                contador++;\r\n            }\r\n        }\r\n        return contador;\r\n    }\r\n\r\n    // Agregar un nuevo IOC\r\n    function agregarIOC(string memory _tipo, string memory _valor) public{\r\n        require(esTipoPermitido(_tipo), \"Tipo de IOC no permitido\");\r\n        require(validarFormato(_tipo, _valor), \"Formato de IOC invalido\");\r\n        require(!esIOCReportado(_valor), \"IOC ya reportado\");\r\n        IOC memory nuevoIOC = IOC({\r\n            tipo: _tipo,\r\n            valor: _valor,\r\n            reportadoPor: msg.sender,\r\n            fechaReporte: block.timestamp\r\n        });\r\n\r\n        iocs[totalIOCs] = nuevoIOC;\r\n        totalIOCs++;\r\n        emit IOCAdded(totalIOCs - 1, _tipo, _valor);// Notificar a los usuarios que han agregado un nuevo IOC con \r\n                                                    //su ID y el tipo y valor de forma asncrona para que se puedan seguir con el \r\n                                                    //resto de acciones sin tener que esperar a que se complete la transaccin\r\n    }\r\n\r\n    // Actualizar un IOC existente\r\n    function actualizarIOC(uint256 _id, string memory _tipo, string memory _valor) public {\r\n        require(_id < totalIOCs, \"IOC no existe\");\r\n        require(esTipoPermitido(_tipo), \"Tipo de IOC no permitido\");\r\n        require(validarFormato(_tipo, _valor), \"Formato de IOC invalido\");\r\n        require(!esIOCReportado(_valor), \"IOC ya reportado\");\r\n        IOC storage ioc = iocs[_id];\r\n        ioc.tipo = _tipo;\r\n        ioc.valor = _valor;\r\n        emit IOCUpdated(_id, _tipo, _valor);\r\n    }\r\n\r\n    // Eliminar un IOC\r\n    function eliminarIOC(uint256 _id) public {\r\n        require(_id < totalIOCs, \"IOC no existe\");\r\n        delete iocs[_id];\r\n        emit IOCDeleted(_id);\r\n    }\r\n\r\n    function obtenerIOC(uint256 _id) public view returns (string memory tipo, string memory valor, address reportadoPor, uint256 fechaReporte) {\r\n        require(_id < totalIOCs, \"IOC no existe\");\r\n        IOC storage ioc = iocs[_id];\r\n        return (ioc.tipo, ioc.valor, ioc.reportadoPor, ioc.fechaReporte);\r\n    }\r\n\r\n    function obtenerIOCPorValor(string memory valorBuscado) public view returns (string memory tipo, string memory valor, address reportadoPor, uint256 fechaReporte) {\r\n        for (uint256 i = 0; i < totalIOCs; i++) {\r\n            if (keccak256(abi.encodePacked(iocs[i].valor)) == keccak256(abi.encodePacked(valorBuscado))) {\r\n                IOC storage ioc = iocs[i];\r\n                return (ioc.tipo, ioc.valor, ioc.reportadoPor, ioc.fechaReporte);\r\n            }\r\n        }\r\n        revert(\"IOC no encontrado con el valor proporcionado\");\r\n    }\r\n\r\n    function obtenerTodosIOCs() public view returns (IOC[] memory) {\r\n    IOC[] memory todos = new IOC[](totalIOCs);\r\n    for (uint256 i = 0; i < totalIOCs; i++) {\r\n        IOC storage ioc = iocs[i];\r\n        if (ioc.reportadoPor != address(0)) { // Verificar si el IOC existe\r\n            todos[i] = ioc;\r\n        }\r\n    }\r\n        return todos;\r\n    }\r\n\r\n    // Funcin para obtener el ID de un IOC mediante su valor\r\n    function obtenerIDPorValor(string memory valorBuscado) public view returns (uint256) {\r\n        for (uint256 i = 0; i < totalIOCs; i++) {\r\n            if (keccak256(abi.encodePacked(iocs[i].valor)) == keccak256(abi.encodePacked(valorBuscado))) {\r\n                return i;  // Retorna el ID si el valor coincide\r\n            }\r\n        }\r\n        revert(\"IOC no encontrado con el valor proporcionado\");  // Si no se encuentra, revierte la transaccin\r\n    }\r\n\r\n    // Funcin para verificar si un IOC ha sido reportado anteriormente\r\n    function esIOCReportado(string memory _valor) public view returns (bool) {\r\n        for (uint256 i = 0; i < totalIOCs; i++) {\r\n            if (keccak256(abi.encodePacked(iocs[i].valor)) == keccak256(abi.encodePacked(_valor))) {\r\n                return true;\r\n            }\r\n        }\r\n        return false;\r\n    }\r\n}\r\n",
  "sourcePath": "C:\\Users\\difer\\Desktop\\Truffle\\contracts\\contratos\\Indicador.sol",
  "compiler": {
    "name": "solc",
    "version": "0.8.21+commit.d9974bed.Emscripten.clang"
  },
  "schemaVersion": "3.4.16",
  "updatedAt": "2024-05-12T10:31:54.036Z",
  "networkType": "ethereum",
  "devdoc": {
    "kind": "dev",
    "methods": {},
    "version": 1
  },
  "userdoc": {
    "kind": "user",
    "methods": {},
    "version": 1
  }
}