{
  "contractName": "ManagerSTIX",
  "abi": [
    {
      "inputs": [
        {
          "internalType": "address",
          "name": "_indicadorAddress",
          "type": "address"
        },
        {
          "internalType": "address",
          "name": "_ttpAddress",
          "type": "address"
        },
        {
          "internalType": "address",
          "name": "_herramientasAddress",
          "type": "address"
        }
      ],
      "stateMutability": "nonpayable",
      "type": "constructor"
    },
    {
      "inputs": [],
      "name": "herramientasContract",
      "outputs": [
        {
          "internalType": "contract IHerramientas",
          "name": "",
          "type": "address"
        }
      ],
      "stateMutability": "view",
      "type": "function",
      "constant": true
    },
    {
      "inputs": [],
      "name": "indicadorContract",
      "outputs": [
        {
          "internalType": "contract IIndicador",
          "name": "",
          "type": "address"
        }
      ],
      "stateMutability": "view",
      "type": "function",
      "constant": true
    },
    {
      "inputs": [],
      "name": "owner",
      "outputs": [
        {
          "internalType": "address",
          "name": "",
          "type": "address"
        }
      ],
      "stateMutability": "view",
      "type": "function",
      "constant": true
    },
    {
      "inputs": [],
      "name": "ttpContract",
      "outputs": [
        {
          "internalType": "contract ITTP",
          "name": "",
          "type": "address"
        }
      ],
      "stateMutability": "view",
      "type": "function",
      "constant": true
    },
    {
      "inputs": [
        {
          "internalType": "address",
          "name": "_newAddress",
          "type": "address"
        }
      ],
      "name": "setIndicadorContract",
      "outputs": [],
      "stateMutability": "nonpayable",
      "type": "function"
    },
    {
      "inputs": [
        {
          "internalType": "address",
          "name": "_newAddress",
          "type": "address"
        }
      ],
      "name": "setTTPContract",
      "outputs": [],
      "stateMutability": "nonpayable",
      "type": "function"
    },
    {
      "inputs": [
        {
          "internalType": "address",
          "name": "_newAddress",
          "type": "address"
        }
      ],
      "name": "setHerramientasContract",
      "outputs": [],
      "stateMutability": "nonpayable",
      "type": "function"
    },
    {
      "inputs": [
        {
          "internalType": "string",
          "name": "tipo",
          "type": "string"
        },
        {
          "internalType": "string",
          "name": "valor",
          "type": "string"
        }
      ],
      "name": "agregarIOC",
      "outputs": [],
      "stateMutability": "nonpayable",
      "type": "function"
    },
    {
      "inputs": [
        {
          "internalType": "uint256",
          "name": "id",
          "type": "uint256"
        },
        {
          "internalType": "string",
          "name": "tipo",
          "type": "string"
        },
        {
          "internalType": "string",
          "name": "valor",
          "type": "string"
        }
      ],
      "name": "actualizarIOC",
      "outputs": [],
      "stateMutability": "nonpayable",
      "type": "function"
    },
    {
      "inputs": [
        {
          "internalType": "uint256",
          "name": "id",
          "type": "uint256"
        }
      ],
      "name": "eliminarIOC",
      "outputs": [],
      "stateMutability": "nonpayable",
      "type": "function"
    },
    {
      "inputs": [
        {
          "internalType": "uint256",
          "name": "id",
          "type": "uint256"
        }
      ],
      "name": "obtenerIOC",
      "outputs": [
        {
          "internalType": "string",
          "name": "tipo",
          "type": "string"
        },
        {
          "internalType": "string",
          "name": "valor",
          "type": "string"
        },
        {
          "internalType": "address",
          "name": "reportadoPor",
          "type": "address"
        },
        {
          "internalType": "uint256",
          "name": "fechaReporte",
          "type": "uint256"
        }
      ],
      "stateMutability": "view",
      "type": "function",
      "constant": true
    },
    {
      "inputs": [
        {
          "internalType": "string",
          "name": "descripcion",
          "type": "string"
        },
        {
          "internalType": "string",
          "name": "categoria",
          "type": "string"
        }
      ],
      "name": "agregarTTP",
      "outputs": [],
      "stateMutability": "nonpayable",
      "type": "function"
    },
    {
      "inputs": [
        {
          "internalType": "uint256",
          "name": "id",
          "type": "uint256"
        },
        {
          "internalType": "string",
          "name": "descripcion",
          "type": "string"
        },
        {
          "internalType": "string",
          "name": "categoria",
          "type": "string"
        }
      ],
      "name": "actualizarTTP",
      "outputs": [],
      "stateMutability": "nonpayable",
      "type": "function"
    },
    {
      "inputs": [
        {
          "internalType": "uint256",
          "name": "id",
          "type": "uint256"
        }
      ],
      "name": "eliminarTTP",
      "outputs": [],
      "stateMutability": "nonpayable",
      "type": "function"
    },
    {
      "inputs": [
        {
          "internalType": "uint256",
          "name": "id",
          "type": "uint256"
        }
      ],
      "name": "obtenerTTP",
      "outputs": [
        {
          "internalType": "string",
          "name": "descripcion",
          "type": "string"
        },
        {
          "internalType": "string",
          "name": "categoria",
          "type": "string"
        },
        {
          "internalType": "address",
          "name": "reportadoPor",
          "type": "address"
        },
        {
          "internalType": "uint256",
          "name": "fechaReporte",
          "type": "uint256"
        }
      ],
      "stateMutability": "view",
      "type": "function",
      "constant": true
    },
    {
      "inputs": [
        {
          "internalType": "string",
          "name": "nombre",
          "type": "string"
        },
        {
          "internalType": "string",
          "name": "descripcion",
          "type": "string"
        }
      ],
      "name": "agregarHerramienta",
      "outputs": [],
      "stateMutability": "nonpayable",
      "type": "function"
    },
    {
      "inputs": [
        {
          "internalType": "uint256",
          "name": "id",
          "type": "uint256"
        },
        {
          "internalType": "string",
          "name": "nombre",
          "type": "string"
        },
        {
          "internalType": "string",
          "name": "descripcion",
          "type": "string"
        }
      ],
      "name": "actualizarHerramienta",
      "outputs": [],
      "stateMutability": "nonpayable",
      "type": "function"
    },
    {
      "inputs": [
        {
          "internalType": "uint256",
          "name": "id",
          "type": "uint256"
        }
      ],
      "name": "eliminarHerramienta",
      "outputs": [],
      "stateMutability": "nonpayable",
      "type": "function"
    },
    {
      "inputs": [
        {
          "internalType": "uint256",
          "name": "id",
          "type": "uint256"
        }
      ],
      "name": "obtenerHerramienta",
      "outputs": [
        {
          "internalType": "string",
          "name": "nombre",
          "type": "string"
        },
        {
          "internalType": "string",
          "name": "descripcion",
          "type": "string"
        },
        {
          "internalType": "address",
          "name": "reportadoPor",
          "type": "address"
        },
        {
          "internalType": "uint256",
          "name": "fechaReporte",
          "type": "uint256"
        }
      ],
      "stateMutability": "view",
      "type": "function",
      "constant": true
    }
  ],
  "bytecode": "0x60806040523480156200001157600080fd5b5060405162001cd738038062001cd78339818101604052810190620000379190620001ad565b336000806101000a81548173ffffffffffffffffffffffffffffffffffffffff021916908373ffffffffffffffffffffffffffffffffffffffff16021790555082600160006101000a81548173ffffffffffffffffffffffffffffffffffffffff021916908373ffffffffffffffffffffffffffffffffffffffff16021790555081600260006101000a81548173ffffffffffffffffffffffffffffffffffffffff021916908373ffffffffffffffffffffffffffffffffffffffff16021790555080600360006101000a81548173ffffffffffffffffffffffffffffffffffffffff021916908373ffffffffffffffffffffffffffffffffffffffff16021790555050505062000209565b600080fd5b600073ffffffffffffffffffffffffffffffffffffffff82169050919050565b6000620001758262000148565b9050919050565b620001878162000168565b81146200019357600080fd5b50565b600081519050620001a7816200017c565b92915050565b600080600060608486031215620001c957620001c862000143565b5b6000620001d98682870162000196565b9350506020620001ec8682870162000196565b9250506040620001ff8682870162000196565b9150509250925092565b611abe80620002196000396000f3fe608060405234801561001057600080fd5b50600436106101215760003560e01c80639ef07244116100ad578063c812144011610071578063c8121440146102e4578063ccd666d214610300578063d62ac10c1461031c578063e2921ea514610338578063f6b7af941461036b57610121565b80639ef0724414610256578063a2afe8e814610272578063bf4c0b761461028e578063c0ddb9c3146102aa578063c0f4140d146102c857610121565b806358e2e3d7116100f457806358e2e3d7146101c65780638da5cb5b146101e45780639290aaa2146102025780639374a5061461021e57806394cec54b1461023a57610121565b80631eb098581461012657806332aa364114610144578063390b611614610177578063525ef0ea146101aa575b600080fd5b61012e610387565b60405161013b919061135d565b60405180910390f35b61015e600480360381019061015991906113c2565b6103ad565b60405161016e94939291906114af565b60405180910390f35b610191600480360381019061018c91906113c2565b610463565b6040516101a194939291906114af565b60405180910390f35b6101c460048036038101906101bf91906113c2565b610519565b005b6101ce610637565b6040516101db9190611523565b60405180910390f35b6101ec61065d565b6040516101f9919061153e565b60405180910390f35b61021c6004803603810190610217919061168e565b610681565b005b61023860048036038101906102339190611706565b6107a2565b005b610254600480360381019061024f919061168e565b6108c6565b005b610270600480360381019061026b91906113c2565b6109e7565b005b61028c600480360381019061028791906117bd565b610b05565b005b6102a860048036038101906102a391906117bd565b610bd7565b005b6102b2610ca9565b6040516102bf919061180b565b60405180910390f35b6102e260048036038101906102dd919061168e565b610ccf565b005b6102fe60048036038101906102f991906117bd565b610df0565b005b61031a600480360381019061031591906113c2565b610ec2565b005b61033660048036038101906103319190611706565b610fe0565b005b610352600480360381019061034d91906113c2565b611104565b60405161036294939291906114af565b60405180910390f35b61038560048036038101906103809190611706565b6111ba565b005b600360009054906101000a900473ffffffffffffffffffffffffffffffffffffffff1681565b606080600080600260009054906101000a900473ffffffffffffffffffffffffffffffffffffffff1673ffffffffffffffffffffffffffffffffffffffff166332aa3641866040518263ffffffff1660e01b815260040161040e9190611826565b600060405180830381865afa15801561042b573d6000803e3d6000fd5b505050506040513d6000823e3d601f19601f8201168201806040525081019061045491906118db565b93509350935093509193509193565b606080600080600160009054906101000a900473ffffffffffffffffffffffffffffffffffffffff1673ffffffffffffffffffffffffffffffffffffffff1663390b6116866040518263ffffffff1660e01b81526004016104c49190611826565b600060405180830381865afa1580156104e1573d6000803e3d6000fd5b505050506040513d6000823e3d601f19601f8201168201806040525081019061050a91906118db565b93509350935093509193509193565b60008054906101000a900473ffffffffffffffffffffffffffffffffffffffff1673ffffffffffffffffffffffffffffffffffffffff163373ffffffffffffffffffffffffffffffffffffffff16146105a7576040517f08c379a000000000000000000000000000000000000000000000000000000000815260040161059e906119ec565b60405180910390fd5b600260009054906101000a900473ffffffffffffffffffffffffffffffffffffffff1673ffffffffffffffffffffffffffffffffffffffff1663525ef0ea826040518263ffffffff1660e01b81526004016106029190611826565b600060405180830381600087803b15801561061c57600080fd5b505af1158015610630573d6000803e3d6000fd5b5050505050565b600160009054906101000a900473ffffffffffffffffffffffffffffffffffffffff1681565b60008054906101000a900473ffffffffffffffffffffffffffffffffffffffff1681565b60008054906101000a900473ffffffffffffffffffffffffffffffffffffffff1673ffffffffffffffffffffffffffffffffffffffff163373ffffffffffffffffffffffffffffffffffffffff161461070f576040517f08c379a0000000000000000000000000000000000000000000000000000000008152600401610706906119ec565b60405180910390fd5b600160009054906101000a900473ffffffffffffffffffffffffffffffffffffffff1673ffffffffffffffffffffffffffffffffffffffff16639290aaa283836040518363ffffffff1660e01b815260040161076c929190611a0c565b600060405180830381600087803b15801561078657600080fd5b505af115801561079a573d6000803e3d6000fd5b505050505050565b60008054906101000a900473ffffffffffffffffffffffffffffffffffffffff1673ffffffffffffffffffffffffffffffffffffffff163373ffffffffffffffffffffffffffffffffffffffff1614610830576040517f08c379a0000000000000000000000000000000000000000000000000000000008152600401610827906119ec565b60405180910390fd5b600260009054906101000a900473ffffffffffffffffffffffffffffffffffffffff1673ffffffffffffffffffffffffffffffffffffffff16639374a5068484846040518463ffffffff1660e01b815260040161088f93929190611a43565b600060405180830381600087803b1580156108a957600080fd5b505af11580156108bd573d6000803e3d6000fd5b50505050505050565b60008054906101000a900473ffffffffffffffffffffffffffffffffffffffff1673ffffffffffffffffffffffffffffffffffffffff163373ffffffffffffffffffffffffffffffffffffffff1614610954576040517f08c379a000000000000000000000000000000000000000000000000000000000815260040161094b906119ec565b60405180910390fd5b600360009054906101000a900473ffffffffffffffffffffffffffffffffffffffff1673ffffffffffffffffffffffffffffffffffffffff166394cec54b83836040518363ffffffff1660e01b81526004016109b1929190611a0c565b600060405180830381600087803b1580156109cb57600080fd5b505af11580156109df573d6000803e3d6000fd5b505050505050565b60008054906101000a900473ffffffffffffffffffffffffffffffffffffffff1673ffffffffffffffffffffffffffffffffffffffff163373ffffffffffffffffffffffffffffffffffffffff1614610a75576040517f08c379a0000000000000000000000000000000000000000000000000000000008152600401610a6c906119ec565b60405180910390fd5b600360009054906101000a900473ffffffffffffffffffffffffffffffffffffffff1673ffffffffffffffffffffffffffffffffffffffff16639ef07244826040518263ffffffff1660e01b8152600401610ad09190611826565b600060405180830381600087803b158015610aea57600080fd5b505af1158015610afe573d6000803e3d6000fd5b5050505050565b60008054906101000a900473ffffffffffffffffffffffffffffffffffffffff1673ffffffffffffffffffffffffffffffffffffffff163373ffffffffffffffffffffffffffffffffffffffff1614610b93576040517f08c379a0000000000000000000000000000000000000000000000000000000008152600401610b8a906119ec565b60405180910390fd5b80600260006101000a81548173ffffffffffffffffffffffffffffffffffffffff021916908373ffffffffffffffffffffffffffffffffffffffff16021790555050565b60008054906101000a900473ffffffffffffffffffffffffffffffffffffffff1673ffffffffffffffffffffffffffffffffffffffff163373ffffffffffffffffffffffffffffffffffffffff1614610c65576040517f08c379a0000000000000000000000000000000000000000000000000000000008152600401610c5c906119ec565b60405180910390fd5b80600360006101000a81548173ffffffffffffffffffffffffffffffffffffffff021916908373ffffffffffffffffffffffffffffffffffffffff16021790555050565b600260009054906101000a900473ffffffffffffffffffffffffffffffffffffffff1681565b60008054906101000a900473ffffffffffffffffffffffffffffffffffffffff1673ffffffffffffffffffffffffffffffffffffffff163373ffffffffffffffffffffffffffffffffffffffff1614610d5d576040517f08c379a0000000000000000000000000000000000000000000000000000000008152600401610d54906119ec565b60405180910390fd5b600260009054906101000a900473ffffffffffffffffffffffffffffffffffffffff1673ffffffffffffffffffffffffffffffffffffffff1663c0f4140d83836040518363ffffffff1660e01b8152600401610dba929190611a0c565b600060405180830381600087803b158015610dd457600080fd5b505af1158015610de8573d6000803e3d6000fd5b505050505050565b60008054906101000a900473ffffffffffffffffffffffffffffffffffffffff1673ffffffffffffffffffffffffffffffffffffffff163373ffffffffffffffffffffffffffffffffffffffff1614610e7e576040517f08c379a0000000000000000000000000000000000000000000000000000000008152600401610e75906119ec565b60405180910390fd5b80600160006101000a81548173ffffffffffffffffffffffffffffffffffffffff021916908373ffffffffffffffffffffffffffffffffffffffff16021790555050565b60008054906101000a900473ffffffffffffffffffffffffffffffffffffffff1673ffffffffffffffffffffffffffffffffffffffff163373ffffffffffffffffffffffffffffffffffffffff1614610f50576040517f08c379a0000000000000000000000000000000000000000000000000000000008152600401610f47906119ec565b60405180910390fd5b600160009054906101000a900473ffffffffffffffffffffffffffffffffffffffff1673ffffffffffffffffffffffffffffffffffffffff1663ccd666d2826040518263ffffffff1660e01b8152600401610fab9190611826565b600060405180830381600087803b158015610fc557600080fd5b505af1158015610fd9573d6000803e3d6000fd5b5050505050565b60008054906101000a900473ffffffffffffffffffffffffffffffffffffffff1673ffffffffffffffffffffffffffffffffffffffff163373ffffffffffffffffffffffffffffffffffffffff161461106e576040517f08c379a0000000000000000000000000000000000000000000000000000000008152600401611065906119ec565b60405180910390fd5b600360009054906101000a900473ffffffffffffffffffffffffffffffffffffffff1673ffffffffffffffffffffffffffffffffffffffff1663d62ac10c8484846040518463ffffffff1660e01b81526004016110cd93929190611a43565b600060405180830381600087803b1580156110e757600080fd5b505af11580156110fb573d6000803e3d6000fd5b50505050505050565b606080600080600360009054906101000a900473ffffffffffffffffffffffffffffffffffffffff1673ffffffffffffffffffffffffffffffffffffffff1663e2921ea5866040518263ffffffff1660e01b81526004016111659190611826565b600060405180830381865afa158015611182573d6000803e3d6000fd5b505050506040513d6000823e3d601f19601f820116820180604052508101906111ab91906118db565b93509350935093509193509193565b60008054906101000a900473ffffffffffffffffffffffffffffffffffffffff1673ffffffffffffffffffffffffffffffffffffffff163373ffffffffffffffffffffffffffffffffffffffff1614611248576040517f08c379a000000000000000000000000000000000000000000000000000000000815260040161123f906119ec565b60405180910390fd5b600160009054906101000a900473ffffffffffffffffffffffffffffffffffffffff1673ffffffffffffffffffffffffffffffffffffffff1663f6b7af948484846040518463ffffffff1660e01b81526004016112a793929190611a43565b600060405180830381600087803b1580156112c157600080fd5b505af11580156112d5573d6000803e3d6000fd5b50505050505050565b600073ffffffffffffffffffffffffffffffffffffffff82169050919050565b6000819050919050565b600061132361131e611319846112de565b6112fe565b6112de565b9050919050565b600061133582611308565b9050919050565b60006113478261132a565b9050919050565b6113578161133c565b82525050565b6000602082019050611372600083018461134e565b92915050565b6000604051905090565b600080fd5b600080fd5b6000819050919050565b61139f8161138c565b81146113aa57600080fd5b50565b6000813590506113bc81611396565b92915050565b6000602082840312156113d8576113d7611382565b5b60006113e6848285016113ad565b91505092915050565b600081519050919050565b600082825260208201905092915050565b60005b8381101561142957808201518184015260208101905061140e565b60008484015250505050565b6000601f19601f8301169050919050565b6000611451826113ef565b61145b81856113fa565b935061146b81856020860161140b565b61147481611435565b840191505092915050565b600061148a826112de565b9050919050565b61149a8161147f565b82525050565b6114a98161138c565b82525050565b600060808201905081810360008301526114c98187611446565b905081810360208301526114dd8186611446565b90506114ec6040830185611491565b6114f960608301846114a0565b95945050505050565b600061150d8261132a565b9050919050565b61151d81611502565b82525050565b60006020820190506115386000830184611514565b92915050565b60006020820190506115536000830184611491565b92915050565b600080fd5b600080fd5b7f4e487b7100000000000000000000000000000000000000000000000000000000600052604160045260246000fd5b61159b82611435565b810181811067ffffffffffffffff821117156115ba576115b9611563565b5b80604052505050565b60006115cd611378565b90506115d98282611592565b919050565b600067ffffffffffffffff8211156115f9576115f8611563565b5b61160282611435565b9050602081019050919050565b82818337600083830152505050565b600061163161162c846115de565b6115c3565b90508281526020810184848401111561164d5761164c61155e565b5b61165884828561160f565b509392505050565b600082601f83011261167557611674611559565b5b813561168584826020860161161e565b91505092915050565b600080604083850312156116a5576116a4611382565b5b600083013567ffffffffffffffff8111156116c3576116c2611387565b5b6116cf85828601611660565b925050602083013567ffffffffffffffff8111156116f0576116ef611387565b5b6116fc85828601611660565b9150509250929050565b60008060006060848603121561171f5761171e611382565b5b600061172d868287016113ad565b935050602084013567ffffffffffffffff81111561174e5761174d611387565b5b61175a86828701611660565b925050604084013567ffffffffffffffff81111561177b5761177a611387565b5b61178786828701611660565b9150509250925092565b61179a8161147f565b81146117a557600080fd5b50565b6000813590506117b781611791565b92915050565b6000602082840312156117d3576117d2611382565b5b60006117e1848285016117a8565b91505092915050565b60006117f58261132a565b9050919050565b611805816117ea565b82525050565b600060208201905061182060008301846117fc565b92915050565b600060208201905061183b60008301846114a0565b92915050565b600061185461184f846115de565b6115c3565b9050828152602081018484840111156118705761186f61155e565b5b61187b84828561140b565b509392505050565b600082601f83011261189857611897611559565b5b81516118a8848260208601611841565b91505092915050565b6000815190506118c081611791565b92915050565b6000815190506118d581611396565b92915050565b600080600080608085870312156118f5576118f4611382565b5b600085015167ffffffffffffffff81111561191357611912611387565b5b61191f87828801611883565b945050602085015167ffffffffffffffff8111156119405761193f611387565b5b61194c87828801611883565b935050604061195d878288016118b1565b925050606061196e878288016118c6565b91505092959194509250565b7f536f6c6f20656c2070726f706965746172696f207075656465207265616c697a60008201527f6172206573746120616363696f6e000000000000000000000000000000000000602082015250565b60006119d6602e836113fa565b91506119e18261197a565b604082019050919050565b60006020820190508181036000830152611a05816119c9565b9050919050565b60006040820190508181036000830152611a268185611446565b90508181036020830152611a3a8184611446565b90509392505050565b6000606082019050611a5860008301866114a0565b8181036020830152611a6a8185611446565b90508181036040830152611a7e8184611446565b905094935050505056fea264697066735822122081a5fb3051d1b47482403dcb86fa75e49a7bba81e4552613fd9c2fd1da98d23464736f6c63430008150033",
  "immutableReferences": {},
  "source": "// SPDX-License-Identifier: MIT\r\npragma solidity ^0.8.0;\r\nimport \"./interfaces/IIndicador.sol\";\r\nimport \"./interfaces/ITTP.sol\";\r\nimport \"./interfaces/IHerramientas.sol\";\r\n\r\n\r\ncontract ManagerSTIX {\r\n    address public owner;\r\n    IIndicador public indicadorContract;\r\n    ITTP public ttpContract;\r\n    IHerramientas public herramientasContract;\r\n\r\n\r\n    constructor(address _indicadorAddress, address _ttpAddress, address _herramientasAddress) {\r\n        owner = msg.sender;\r\n        indicadorContract = IIndicador(_indicadorAddress);\r\n        ttpContract = ITTP(_ttpAddress);\r\n        herramientasContract = IHerramientas(_herramientasAddress);\r\n\r\n    }\r\n    \r\n    modifier onlyOwner() {\r\n        require(msg.sender == owner, \"Solo el propietario puede realizar esta accion\");\r\n        _;\r\n    }\r\n\r\n    // Funcin para actualizar la direccin del contrato de Indicadores\r\n    function setIndicadorContract(address _newAddress) public onlyOwner {\r\n        indicadorContract = IIndicador(_newAddress);\r\n    }\r\n\r\n    // Funcin para actualizar la direccin del contrato de TTPs\r\n    function setTTPContract(address _newAddress) public onlyOwner {\r\n        ttpContract = ITTP(_newAddress);\r\n    }\r\n\r\n    // Mtodos para interactuar con el contrato de Herramientas\r\n    function setHerramientasContract(address _newAddress) public onlyOwner {\r\n        herramientasContract = IHerramientas(_newAddress);\r\n    }\r\n\r\n    /////////////////////////////////////////////////////////////////////////////////////\r\n    /////////////////////// Delegar llamadas al contrato Indicador///////////////////////\r\n    /////////////////////////////////////////////////////////////////////////////////////\r\n\r\n\r\n    function agregarIOC(string memory tipo, string memory valor) public onlyOwner {\r\n        indicadorContract.agregarIOC(tipo, valor);\r\n    }\r\n\r\n    function actualizarIOC(uint256 id, string memory tipo, string memory valor) public onlyOwner {\r\n        indicadorContract.actualizarIOC(id, tipo, valor);\r\n    }\r\n\r\n    function eliminarIOC(uint256 id) public onlyOwner {\r\n        indicadorContract.eliminarIOC(id);\r\n    }\r\n\r\n    function obtenerIOC(uint256 id) public view returns (string memory tipo, string memory valor, address reportadoPor, uint256 fechaReporte) {\r\n        return indicadorContract.obtenerIOC(id);\r\n    }\r\n\r\n\r\n    /////////////////////////////////////////////////////////////////////////////////////\r\n    ///////////////////////// Delegar llamadas al contrato TTP //////////////////////////\r\n    /////////////////////////////////////////////////////////////////////////////////////\r\n\r\n    function agregarTTP(string memory descripcion, string memory categoria) public onlyOwner {\r\n        ttpContract.agregarTTP(descripcion, categoria);\r\n    }\r\n\r\n    function actualizarTTP(uint256 id, string memory descripcion, string memory categoria) public onlyOwner {\r\n        ttpContract.actualizarTTP(id, descripcion, categoria);\r\n    }\r\n\r\n    function eliminarTTP(uint256 id) public onlyOwner {\r\n        ttpContract.eliminarTTP(id);\r\n    }\r\n\r\n    function obtenerTTP(uint256 id) public view returns (string memory descripcion, string memory categoria, address reportadoPor, uint256 fechaReporte) {\r\n        return ttpContract.obtenerTTP(id);\r\n    }\r\n\r\n    /////////////////////////////////////////////////////////////////////////////////////\r\n    //////////////////// Delegar llamadas al contrato Herramientas //////////////////////\r\n    /////////////////////////////////////////////////////////////////////////////////////\r\n\r\n    function agregarHerramienta(string memory nombre, string memory descripcion) public onlyOwner {\r\n        herramientasContract.agregarHerramienta(nombre, descripcion);\r\n    }\r\n\r\n    function actualizarHerramienta(uint256 id, string memory nombre, string memory descripcion) public onlyOwner {\r\n        herramientasContract.actualizarHerramienta(id, nombre, descripcion);\r\n    }\r\n\r\n    function eliminarHerramienta(uint256 id) public onlyOwner {\r\n        herramientasContract.eliminarHerramienta(id);\r\n    }\r\n\r\n    function obtenerHerramienta(uint256 id) public view returns (string memory nombre, string memory descripcion, address reportadoPor, uint256 fechaReporte) {\r\n        return herramientasContract.obtenerHerramienta(id);\r\n    }\r\n}\r\n",
  "sourcePath": "C:\\Users\\difer\\Desktop\\Truffle\\contracts\\ManagerSTIX.sol",
  "compiler": {
    "name": "solc",
    "version": "0.8.21+commit.d9974bed.Emscripten.clang"
  },
  "schemaVersion": "3.4.16",
  "updatedAt": "2024-05-09T10:01:58.821Z",
  "networkType": "ethereum",
  "devdoc": {
    "kind": "dev",
    "methods": {},
    "version": 1
  },
  "userdoc": {
    "kind": "user",
    "methods": {},
    "version": 1
  }
}