{
  "contractName": "ManagerSTIX",
  "abi": [
    {
      "inputs": [
        {
          "internalType": "address",
          "name": "_indicadorAddress",
          "type": "address"
        },
        {
          "internalType": "address",
          "name": "_ttpAddress",
          "type": "address"
        },
        {
          "internalType": "address",
          "name": "_herramientasAddress",
          "type": "address"
        }
      ],
      "stateMutability": "nonpayable",
      "type": "constructor"
    },
    {
      "inputs": [],
      "name": "herramientasContract",
      "outputs": [
        {
          "internalType": "contract IHerramientas",
          "name": "",
          "type": "address"
        }
      ],
      "stateMutability": "view",
      "type": "function",
      "constant": true
    },
    {
      "inputs": [],
      "name": "indicadorContract",
      "outputs": [
        {
          "internalType": "contract IIndicador",
          "name": "",
          "type": "address"
        }
      ],
      "stateMutability": "view",
      "type": "function",
      "constant": true
    },
    {
      "inputs": [],
      "name": "owner",
      "outputs": [
        {
          "internalType": "address",
          "name": "",
          "type": "address"
        }
      ],
      "stateMutability": "view",
      "type": "function",
      "constant": true
    },
    {
      "inputs": [],
      "name": "ttpContract",
      "outputs": [
        {
          "internalType": "contract ITTP",
          "name": "",
          "type": "address"
        }
      ],
      "stateMutability": "view",
      "type": "function",
      "constant": true
    },
    {
      "inputs": [
        {
          "internalType": "address",
          "name": "_newAddress",
          "type": "address"
        }
      ],
      "name": "setIndicadorContract",
      "outputs": [],
      "stateMutability": "nonpayable",
      "type": "function"
    },
    {
      "inputs": [
        {
          "internalType": "address",
          "name": "_newAddress",
          "type": "address"
        }
      ],
      "name": "setTTPContract",
      "outputs": [],
      "stateMutability": "nonpayable",
      "type": "function"
    },
    {
      "inputs": [
        {
          "internalType": "address",
          "name": "_newAddress",
          "type": "address"
        }
      ],
      "name": "setHerramientasContract",
      "outputs": [],
      "stateMutability": "nonpayable",
      "type": "function"
    },
    {
      "inputs": [
        {
          "internalType": "string",
          "name": "tipo",
          "type": "string"
        },
        {
          "internalType": "string",
          "name": "valor",
          "type": "string"
        }
      ],
      "name": "agregarIOC",
      "outputs": [],
      "stateMutability": "nonpayable",
      "type": "function"
    },
    {
      "inputs": [
        {
          "internalType": "uint256",
          "name": "id",
          "type": "uint256"
        },
        {
          "internalType": "string",
          "name": "tipo",
          "type": "string"
        },
        {
          "internalType": "string",
          "name": "valor",
          "type": "string"
        }
      ],
      "name": "actualizarIOC",
      "outputs": [],
      "stateMutability": "nonpayable",
      "type": "function"
    },
    {
      "inputs": [
        {
          "internalType": "uint256",
          "name": "id",
          "type": "uint256"
        }
      ],
      "name": "eliminarIOC",
      "outputs": [],
      "stateMutability": "nonpayable",
      "type": "function"
    },
    {
      "inputs": [
        {
          "internalType": "string",
          "name": "valorBuscado",
          "type": "string"
        }
      ],
      "name": "obtenerIOCPorValor",
      "outputs": [
        {
          "internalType": "string",
          "name": "tipo",
          "type": "string"
        },
        {
          "internalType": "string",
          "name": "valor",
          "type": "string"
        },
        {
          "internalType": "address",
          "name": "reportadoPor",
          "type": "address"
        },
        {
          "internalType": "uint256",
          "name": "fechaReporte",
          "type": "uint256"
        }
      ],
      "stateMutability": "view",
      "type": "function",
      "constant": true
    },
    {
      "inputs": [
        {
          "internalType": "uint256",
          "name": "id",
          "type": "uint256"
        }
      ],
      "name": "obtenerIOC",
      "outputs": [
        {
          "internalType": "string",
          "name": "tipo",
          "type": "string"
        },
        {
          "internalType": "string",
          "name": "valor",
          "type": "string"
        },
        {
          "internalType": "address",
          "name": "reportadoPor",
          "type": "address"
        },
        {
          "internalType": "uint256",
          "name": "fechaReporte",
          "type": "uint256"
        }
      ],
      "stateMutability": "view",
      "type": "function",
      "constant": true
    },
    {
      "inputs": [],
      "name": "obtenerTodosIOCs",
      "outputs": [
        {
          "components": [
            {
              "internalType": "string",
              "name": "tipo",
              "type": "string"
            },
            {
              "internalType": "string",
              "name": "valor",
              "type": "string"
            },
            {
              "internalType": "address",
              "name": "reportadoPor",
              "type": "address"
            },
            {
              "internalType": "uint256",
              "name": "fechaReporte",
              "type": "uint256"
            }
          ],
          "internalType": "struct ManagerSTIX.IOC[]",
          "name": "",
          "type": "tuple[]"
        }
      ],
      "stateMutability": "view",
      "type": "function",
      "constant": true
    },
    {
      "inputs": [
        {
          "internalType": "string",
          "name": "valorBuscado",
          "type": "string"
        }
      ],
      "name": "obtenerIDPorValor",
      "outputs": [
        {
          "internalType": "uint256",
          "name": "",
          "type": "uint256"
        }
      ],
      "stateMutability": "view",
      "type": "function",
      "constant": true
    },
    {
      "inputs": [],
      "name": "getTiposPermitidos",
      "outputs": [
        {
          "internalType": "string[]",
          "name": "",
          "type": "string[]"
        }
      ],
      "stateMutability": "view",
      "type": "function",
      "constant": true
    },
    {
      "inputs": [
        {
          "internalType": "string",
          "name": "descripcion",
          "type": "string"
        },
        {
          "internalType": "string",
          "name": "categoria",
          "type": "string"
        }
      ],
      "name": "agregarTTP",
      "outputs": [],
      "stateMutability": "nonpayable",
      "type": "function"
    },
    {
      "inputs": [
        {
          "internalType": "uint256",
          "name": "id",
          "type": "uint256"
        },
        {
          "internalType": "string",
          "name": "descripcion",
          "type": "string"
        },
        {
          "internalType": "string",
          "name": "categoria",
          "type": "string"
        }
      ],
      "name": "actualizarTTP",
      "outputs": [],
      "stateMutability": "nonpayable",
      "type": "function"
    },
    {
      "inputs": [
        {
          "internalType": "uint256",
          "name": "id",
          "type": "uint256"
        }
      ],
      "name": "eliminarTTP",
      "outputs": [],
      "stateMutability": "nonpayable",
      "type": "function"
    },
    {
      "inputs": [
        {
          "internalType": "uint256",
          "name": "id",
          "type": "uint256"
        }
      ],
      "name": "obtenerTTP",
      "outputs": [
        {
          "internalType": "string",
          "name": "descripcion",
          "type": "string"
        },
        {
          "internalType": "string",
          "name": "categoria",
          "type": "string"
        },
        {
          "internalType": "address",
          "name": "reportadoPor",
          "type": "address"
        },
        {
          "internalType": "uint256",
          "name": "fechaReporte",
          "type": "uint256"
        }
      ],
      "stateMutability": "view",
      "type": "function",
      "constant": true
    },
    {
      "inputs": [
        {
          "internalType": "string",
          "name": "nombre",
          "type": "string"
        },
        {
          "internalType": "string",
          "name": "descripcion",
          "type": "string"
        }
      ],
      "name": "agregarHerramienta",
      "outputs": [],
      "stateMutability": "nonpayable",
      "type": "function"
    },
    {
      "inputs": [
        {
          "internalType": "uint256",
          "name": "id",
          "type": "uint256"
        },
        {
          "internalType": "string",
          "name": "nombre",
          "type": "string"
        },
        {
          "internalType": "string",
          "name": "descripcion",
          "type": "string"
        }
      ],
      "name": "actualizarHerramienta",
      "outputs": [],
      "stateMutability": "nonpayable",
      "type": "function"
    },
    {
      "inputs": [
        {
          "internalType": "uint256",
          "name": "id",
          "type": "uint256"
        }
      ],
      "name": "eliminarHerramienta",
      "outputs": [],
      "stateMutability": "nonpayable",
      "type": "function"
    },
    {
      "inputs": [
        {
          "internalType": "uint256",
          "name": "id",
          "type": "uint256"
        }
      ],
      "name": "obtenerHerramienta",
      "outputs": [
        {
          "internalType": "string",
          "name": "nombre",
          "type": "string"
        },
        {
          "internalType": "string",
          "name": "descripcion",
          "type": "string"
        },
        {
          "internalType": "address",
          "name": "reportadoPor",
          "type": "address"
        },
        {
          "internalType": "uint256",
          "name": "fechaReporte",
          "type": "uint256"
        }
      ],
      "stateMutability": "view",
      "type": "function",
      "constant": true
    }
  ],
  "bytecode": "0x60806040523480156200001157600080fd5b5060405162002914380380620029148339818101604052810190620000379190620001ad565b336000806101000a81548173ffffffffffffffffffffffffffffffffffffffff021916908373ffffffffffffffffffffffffffffffffffffffff16021790555082600160006101000a81548173ffffffffffffffffffffffffffffffffffffffff021916908373ffffffffffffffffffffffffffffffffffffffff16021790555081600260006101000a81548173ffffffffffffffffffffffffffffffffffffffff021916908373ffffffffffffffffffffffffffffffffffffffff16021790555080600360006101000a81548173ffffffffffffffffffffffffffffffffffffffff021916908373ffffffffffffffffffffffffffffffffffffffff16021790555050505062000209565b600080fd5b600073ffffffffffffffffffffffffffffffffffffffff82169050919050565b6000620001758262000148565b9050919050565b620001878162000168565b81146200019357600080fd5b50565b600081519050620001a7816200017c565b92915050565b600080600060608486031215620001c957620001c862000143565b5b6000620001d98682870162000196565b9350506020620001ec8682870162000196565b9250506040620001ff8682870162000196565b9150509250925092565b6126fb80620002196000396000f3fe608060405234801561001057600080fd5b506004361061014d5760003560e01c80639ef07244116100c3578063c81214401161007c578063c812144014610391578063ccd666d2146103ad578063d62ac10c146103c9578063e2921ea5146103e5578063f6b7af9414610418578063f79621c2146104345761014d565b80639ef07244146102d3578063a2afe8e8146102ef578063a3e41c321461030b578063bf4c0b761461033b578063c0ddb9c314610357578063c0f4140d146103755761014d565b806355f40ba91161011557806355f40ba91461022557806358e2e3d7146102435780638da5cb5b146102615780639290aaa21461027f5780639374a5061461029b57806394cec54b146102b75761014d565b80631eb098581461015257806332aa364114610170578063390b6116146101a357806340e8c637146101d6578063525ef0ea14610209575b600080fd5b61015a610452565b60405161016791906118af565b60405180910390f35b61018a60048036038101906101859190611914565b610478565b60405161019a9493929190611a01565b60405180910390f35b6101bd60048036038101906101b89190611914565b61052e565b6040516101cd9493929190611a01565b60405180910390f35b6101f060048036038101906101eb9190611b89565b6105e4565b6040516102009493929190611a01565b60405180910390f35b610223600480360381019061021e9190611914565b61069a565b005b61022d6107b8565b60405161023a9190611d66565b60405180910390f35b61024b610a09565b6040516102589190611da9565b60405180910390f35b610269610a2f565b6040516102769190611dc4565b60405180910390f35b61029960048036038101906102949190611ddf565b610a53565b005b6102b560048036038101906102b09190611e57565b610b74565b005b6102d160048036038101906102cc9190611ddf565b610c98565b005b6102ed60048036038101906102e89190611914565b610db9565b005b61030960048036038101906103049190611f0e565b610ed7565b005b61032560048036038101906103209190611b89565b610fa9565b6040516103329190611f3b565b60405180910390f35b61035560048036038101906103509190611f0e565b61104e565b005b61035f611120565b60405161036c9190611f77565b60405180910390f35b61038f600480360381019061038a9190611ddf565b611146565b005b6103ab60048036038101906103a69190611f0e565b611267565b005b6103c760048036038101906103c29190611914565b611339565b005b6103e360048036038101906103de9190611e57565b611457565b005b6103ff60048036038101906103fa9190611914565b61157b565b60405161040f9493929190611a01565b60405180910390f35b610432600480360381019061042d9190611e57565b611631565b005b61043c611755565b6040516104499190612054565b60405180910390f35b600360009054906101000a900473ffffffffffffffffffffffffffffffffffffffff1681565b606080600080600260009054906101000a900473ffffffffffffffffffffffffffffffffffffffff1673ffffffffffffffffffffffffffffffffffffffff166332aa3641866040518263ffffffff1660e01b81526004016104d99190611f3b565b600060405180830381865afa1580156104f6573d6000803e3d6000fd5b505050506040513d6000823e3d601f19601f8201168201806040525081019061051f9190612110565b93509350935093509193509193565b606080600080600160009054906101000a900473ffffffffffffffffffffffffffffffffffffffff1673ffffffffffffffffffffffffffffffffffffffff1663390b6116866040518263ffffffff1660e01b815260040161058f9190611f3b565b600060405180830381865afa1580156105ac573d6000803e3d6000fd5b505050506040513d6000823e3d601f19601f820116820180604052508101906105d59190612110565b93509350935093509193509193565b606080600080600160009054906101000a900473ffffffffffffffffffffffffffffffffffffffff1673ffffffffffffffffffffffffffffffffffffffff166340e8c637866040518263ffffffff1660e01b815260040161064591906121af565b600060405180830381865afa158015610662573d6000803e3d6000fd5b505050506040513d6000823e3d601f19601f8201168201806040525081019061068b9190612110565b93509350935093509193509193565b60008054906101000a900473ffffffffffffffffffffffffffffffffffffffff1673ffffffffffffffffffffffffffffffffffffffff163373ffffffffffffffffffffffffffffffffffffffff1614610728576040517f08c379a000000000000000000000000000000000000000000000000000000000815260040161071f90612243565b60405180910390fd5b600260009054906101000a900473ffffffffffffffffffffffffffffffffffffffff1673ffffffffffffffffffffffffffffffffffffffff1663525ef0ea826040518263ffffffff1660e01b81526004016107839190611f3b565b600060405180830381600087803b15801561079d57600080fd5b505af11580156107b1573d6000803e3d6000fd5b5050505050565b60606000600160009054906101000a900473ffffffffffffffffffffffffffffffffffffffff1673ffffffffffffffffffffffffffffffffffffffff166355f40ba96040518163ffffffff1660e01b8152600401600060405180830381865afa158015610829573d6000803e3d6000fd5b505050506040513d6000823e3d601f19601f820116820180604052508101906108529190612403565b90506000815167ffffffffffffffff81111561087157610870611a5e565b5b6040519080825280602002602001820160405280156108aa57816020015b6108976117f2565b81526020019060019003908161088f5790505b50905060005b8251811015610a00578281815181106108cc576108cb61244c565b5b6020026020010151600001518282815181106108eb576108ea61244c565b5b60200260200101516000018190525082818151811061090d5761090c61244c565b5b60200260200101516020015182828151811061092c5761092b61244c565b5b60200260200101516020018190525082818151811061094e5761094d61244c565b5b60200260200101516040015182828151811061096d5761096c61244c565b5b60200260200101516040019073ffffffffffffffffffffffffffffffffffffffff16908173ffffffffffffffffffffffffffffffffffffffff16815250508281815181106109be576109bd61244c565b5b6020026020010151606001518282815181106109dd576109dc61244c565b5b6020026020010151606001818152505080806109f8906124aa565b9150506108b0565b50809250505090565b600160009054906101000a900473ffffffffffffffffffffffffffffffffffffffff1681565b60008054906101000a900473ffffffffffffffffffffffffffffffffffffffff1681565b60008054906101000a900473ffffffffffffffffffffffffffffffffffffffff1673ffffffffffffffffffffffffffffffffffffffff163373ffffffffffffffffffffffffffffffffffffffff1614610ae1576040517f08c379a0000000000000000000000000000000000000000000000000000000008152600401610ad890612243565b60405180910390fd5b600160009054906101000a900473ffffffffffffffffffffffffffffffffffffffff1673ffffffffffffffffffffffffffffffffffffffff16639290aaa283836040518363ffffffff1660e01b8152600401610b3e9291906124f2565b600060405180830381600087803b158015610b5857600080fd5b505af1158015610b6c573d6000803e3d6000fd5b505050505050565b60008054906101000a900473ffffffffffffffffffffffffffffffffffffffff1673ffffffffffffffffffffffffffffffffffffffff163373ffffffffffffffffffffffffffffffffffffffff1614610c02576040517f08c379a0000000000000000000000000000000000000000000000000000000008152600401610bf990612243565b60405180910390fd5b600260009054906101000a900473ffffffffffffffffffffffffffffffffffffffff1673ffffffffffffffffffffffffffffffffffffffff16639374a5068484846040518463ffffffff1660e01b8152600401610c6193929190612529565b600060405180830381600087803b158015610c7b57600080fd5b505af1158015610c8f573d6000803e3d6000fd5b50505050505050565b60008054906101000a900473ffffffffffffffffffffffffffffffffffffffff1673ffffffffffffffffffffffffffffffffffffffff163373ffffffffffffffffffffffffffffffffffffffff1614610d26576040517f08c379a0000000000000000000000000000000000000000000000000000000008152600401610d1d90612243565b60405180910390fd5b600360009054906101000a900473ffffffffffffffffffffffffffffffffffffffff1673ffffffffffffffffffffffffffffffffffffffff166394cec54b83836040518363ffffffff1660e01b8152600401610d839291906124f2565b600060405180830381600087803b158015610d9d57600080fd5b505af1158015610db1573d6000803e3d6000fd5b505050505050565b60008054906101000a900473ffffffffffffffffffffffffffffffffffffffff1673ffffffffffffffffffffffffffffffffffffffff163373ffffffffffffffffffffffffffffffffffffffff1614610e47576040517f08c379a0000000000000000000000000000000000000000000000000000000008152600401610e3e90612243565b60405180910390fd5b600360009054906101000a900473ffffffffffffffffffffffffffffffffffffffff1673ffffffffffffffffffffffffffffffffffffffff16639ef07244826040518263ffffffff1660e01b8152600401610ea29190611f3b565b600060405180830381600087803b158015610ebc57600080fd5b505af1158015610ed0573d6000803e3d6000fd5b5050505050565b60008054906101000a900473ffffffffffffffffffffffffffffffffffffffff1673ffffffffffffffffffffffffffffffffffffffff163373ffffffffffffffffffffffffffffffffffffffff1614610f65576040517f08c379a0000000000000000000000000000000000000000000000000000000008152600401610f5c90612243565b60405180910390fd5b80600260006101000a81548173ffffffffffffffffffffffffffffffffffffffff021916908373ffffffffffffffffffffffffffffffffffffffff16021790555050565b6000600160009054906101000a900473ffffffffffffffffffffffffffffffffffffffff1673ffffffffffffffffffffffffffffffffffffffff1663a3e41c32836040518263ffffffff1660e01b815260040161100691906121af565b602060405180830381865afa158015611023573d6000803e3d6000fd5b505050506040513d601f19601f82011682018060405250810190611047919061256e565b9050919050565b60008054906101000a900473ffffffffffffffffffffffffffffffffffffffff1673ffffffffffffffffffffffffffffffffffffffff163373ffffffffffffffffffffffffffffffffffffffff16146110dc576040517f08c379a00000000000000000000000000000000000000000000000000000000081526004016110d390612243565b60405180910390fd5b80600360006101000a81548173ffffffffffffffffffffffffffffffffffffffff021916908373ffffffffffffffffffffffffffffffffffffffff16021790555050565b600260009054906101000a900473ffffffffffffffffffffffffffffffffffffffff1681565b60008054906101000a900473ffffffffffffffffffffffffffffffffffffffff1673ffffffffffffffffffffffffffffffffffffffff163373ffffffffffffffffffffffffffffffffffffffff16146111d4576040517f08c379a00000000000000000000000000000000000000000000000000000000081526004016111cb90612243565b60405180910390fd5b600260009054906101000a900473ffffffffffffffffffffffffffffffffffffffff1673ffffffffffffffffffffffffffffffffffffffff1663c0f4140d83836040518363ffffffff1660e01b81526004016112319291906124f2565b600060405180830381600087803b15801561124b57600080fd5b505af115801561125f573d6000803e3d6000fd5b505050505050565b60008054906101000a900473ffffffffffffffffffffffffffffffffffffffff1673ffffffffffffffffffffffffffffffffffffffff163373ffffffffffffffffffffffffffffffffffffffff16146112f5576040517f08c379a00000000000000000000000000000000000000000000000000000000081526004016112ec90612243565b60405180910390fd5b80600160006101000a81548173ffffffffffffffffffffffffffffffffffffffff021916908373ffffffffffffffffffffffffffffffffffffffff16021790555050565b60008054906101000a900473ffffffffffffffffffffffffffffffffffffffff1673ffffffffffffffffffffffffffffffffffffffff163373ffffffffffffffffffffffffffffffffffffffff16146113c7576040517f08c379a00000000000000000000000000000000000000000000000000000000081526004016113be90612243565b60405180910390fd5b600160009054906101000a900473ffffffffffffffffffffffffffffffffffffffff1673ffffffffffffffffffffffffffffffffffffffff1663ccd666d2826040518263ffffffff1660e01b81526004016114229190611f3b565b600060405180830381600087803b15801561143c57600080fd5b505af1158015611450573d6000803e3d6000fd5b5050505050565b60008054906101000a900473ffffffffffffffffffffffffffffffffffffffff1673ffffffffffffffffffffffffffffffffffffffff163373ffffffffffffffffffffffffffffffffffffffff16146114e5576040517f08c379a00000000000000000000000000000000000000000000000000000000081526004016114dc90612243565b60405180910390fd5b600360009054906101000a900473ffffffffffffffffffffffffffffffffffffffff1673ffffffffffffffffffffffffffffffffffffffff1663d62ac10c8484846040518463ffffffff1660e01b815260040161154493929190612529565b600060405180830381600087803b15801561155e57600080fd5b505af1158015611572573d6000803e3d6000fd5b50505050505050565b606080600080600360009054906101000a900473ffffffffffffffffffffffffffffffffffffffff1673ffffffffffffffffffffffffffffffffffffffff1663e2921ea5866040518263ffffffff1660e01b81526004016115dc9190611f3b565b600060405180830381865afa1580156115f9573d6000803e3d6000fd5b505050506040513d6000823e3d601f19601f820116820180604052508101906116229190612110565b93509350935093509193509193565b60008054906101000a900473ffffffffffffffffffffffffffffffffffffffff1673ffffffffffffffffffffffffffffffffffffffff163373ffffffffffffffffffffffffffffffffffffffff16146116bf576040517f08c379a00000000000000000000000000000000000000000000000000000000081526004016116b690612243565b60405180910390fd5b600160009054906101000a900473ffffffffffffffffffffffffffffffffffffffff1673ffffffffffffffffffffffffffffffffffffffff1663f6b7af948484846040518463ffffffff1660e01b815260040161171e93929190612529565b600060405180830381600087803b15801561173857600080fd5b505af115801561174c573d6000803e3d6000fd5b50505050505050565b6060600160009054906101000a900473ffffffffffffffffffffffffffffffffffffffff1673ffffffffffffffffffffffffffffffffffffffff1663f79621c26040518163ffffffff1660e01b8152600401600060405180830381865afa1580156117c4573d6000803e3d6000fd5b505050506040513d6000823e3d601f19601f820116820180604052508101906117ed919061267c565b905090565b60405180608001604052806060815260200160608152602001600073ffffffffffffffffffffffffffffffffffffffff168152602001600081525090565b600073ffffffffffffffffffffffffffffffffffffffff82169050919050565b6000819050919050565b600061187561187061186b84611830565b611850565b611830565b9050919050565b60006118878261185a565b9050919050565b60006118998261187c565b9050919050565b6118a98161188e565b82525050565b60006020820190506118c460008301846118a0565b92915050565b6000604051905090565b600080fd5b600080fd5b6000819050919050565b6118f1816118de565b81146118fc57600080fd5b50565b60008135905061190e816118e8565b92915050565b60006020828403121561192a576119296118d4565b5b6000611938848285016118ff565b91505092915050565b600081519050919050565b600082825260208201905092915050565b60005b8381101561197b578082015181840152602081019050611960565b60008484015250505050565b6000601f19601f8301169050919050565b60006119a382611941565b6119ad818561194c565b93506119bd81856020860161195d565b6119c681611987565b840191505092915050565b60006119dc82611830565b9050919050565b6119ec816119d1565b82525050565b6119fb816118de565b82525050565b60006080820190508181036000830152611a1b8187611998565b90508181036020830152611a2f8186611998565b9050611a3e60408301856119e3565b611a4b60608301846119f2565b95945050505050565b600080fd5b600080fd5b7f4e487b7100000000000000000000000000000000000000000000000000000000600052604160045260246000fd5b611a9682611987565b810181811067ffffffffffffffff82111715611ab557611ab4611a5e565b5b80604052505050565b6000611ac86118ca565b9050611ad48282611a8d565b919050565b600067ffffffffffffffff821115611af457611af3611a5e565b5b611afd82611987565b9050602081019050919050565b82818337600083830152505050565b6000611b2c611b2784611ad9565b611abe565b905082815260208101848484011115611b4857611b47611a59565b5b611b53848285611b0a565b509392505050565b600082601f830112611b7057611b6f611a54565b5b8135611b80848260208601611b19565b91505092915050565b600060208284031215611b9f57611b9e6118d4565b5b600082013567ffffffffffffffff811115611bbd57611bbc6118d9565b5b611bc984828501611b5b565b91505092915050565b600081519050919050565b600082825260208201905092915050565b6000819050602082019050919050565b600082825260208201905092915050565b6000611c1a82611941565b611c248185611bfe565b9350611c3481856020860161195d565b611c3d81611987565b840191505092915050565b611c51816119d1565b82525050565b611c60816118de565b82525050565b60006080830160008301518482036000860152611c838282611c0f565b91505060208301518482036020860152611c9d8282611c0f565b9150506040830151611cb26040860182611c48565b506060830151611cc56060860182611c57565b508091505092915050565b6000611cdc8383611c66565b905092915050565b6000602082019050919050565b6000611cfc82611bd2565b611d068185611bdd565b935083602082028501611d1885611bee565b8060005b85811015611d545784840389528151611d358582611cd0565b9450611d4083611ce4565b925060208a01995050600181019050611d1c565b50829750879550505050505092915050565b60006020820190508181036000830152611d808184611cf1565b905092915050565b6000611d938261187c565b9050919050565b611da381611d88565b82525050565b6000602082019050611dbe6000830184611d9a565b92915050565b6000602082019050611dd960008301846119e3565b92915050565b60008060408385031215611df657611df56118d4565b5b600083013567ffffffffffffffff811115611e1457611e136118d9565b5b611e2085828601611b5b565b925050602083013567ffffffffffffffff811115611e4157611e406118d9565b5b611e4d85828601611b5b565b9150509250929050565b600080600060608486031215611e7057611e6f6118d4565b5b6000611e7e868287016118ff565b935050602084013567ffffffffffffffff811115611e9f57611e9e6118d9565b5b611eab86828701611b5b565b925050604084013567ffffffffffffffff811115611ecc57611ecb6118d9565b5b611ed886828701611b5b565b9150509250925092565b611eeb816119d1565b8114611ef657600080fd5b50565b600081359050611f0881611ee2565b92915050565b600060208284031215611f2457611f236118d4565b5b6000611f3284828501611ef9565b91505092915050565b6000602082019050611f5060008301846119f2565b92915050565b6000611f618261187c565b9050919050565b611f7181611f56565b82525050565b6000602082019050611f8c6000830184611f68565b92915050565b600081519050919050565b600082825260208201905092915050565b6000819050602082019050919050565b6000611fca8383611c0f565b905092915050565b6000602082019050919050565b6000611fea82611f92565b611ff48185611f9d565b93508360208202850161200685611fae565b8060005b8581101561204257848403895281516120238582611fbe565b945061202e83611fd2565b925060208a0199505060018101905061200a565b50829750879550505050505092915050565b6000602082019050818103600083015261206e8184611fdf565b905092915050565b600061208961208484611ad9565b611abe565b9050828152602081018484840111156120a5576120a4611a59565b5b6120b084828561195d565b509392505050565b600082601f8301126120cd576120cc611a54565b5b81516120dd848260208601612076565b91505092915050565b6000815190506120f581611ee2565b92915050565b60008151905061210a816118e8565b92915050565b6000806000806080858703121561212a576121296118d4565b5b600085015167ffffffffffffffff811115612148576121476118d9565b5b612154878288016120b8565b945050602085015167ffffffffffffffff811115612175576121746118d9565b5b612181878288016120b8565b9350506040612192878288016120e6565b92505060606121a3878288016120fb565b91505092959194509250565b600060208201905081810360008301526121c98184611998565b905092915050565b7f536f6c6f20656c2070726f706965746172696f207075656465207265616c697a60008201527f6172206573746120616363696f6e000000000000000000000000000000000000602082015250565b600061222d602e8361194c565b9150612238826121d1565b604082019050919050565b6000602082019050818103600083015261225c81612220565b9050919050565b600067ffffffffffffffff82111561227e5761227d611a5e565b5b602082029050602081019050919050565b600080fd5b600080fd5b600080fd5b6000608082840312156122b4576122b3612294565b5b6122be6080611abe565b9050600082015167ffffffffffffffff8111156122de576122dd612299565b5b6122ea848285016120b8565b600083015250602082015167ffffffffffffffff81111561230e5761230d612299565b5b61231a848285016120b8565b602083015250604061232e848285016120e6565b6040830152506060612342848285016120fb565b60608301525092915050565b600061236161235c84612263565b611abe565b905080838252602082019050602084028301858111156123845761238361228f565b5b835b818110156123cb57805167ffffffffffffffff8111156123a9576123a8611a54565b5b8086016123b6898261229e565b85526020850194505050602081019050612386565b5050509392505050565b600082601f8301126123ea576123e9611a54565b5b81516123fa84826020860161234e565b91505092915050565b600060208284031215612419576124186118d4565b5b600082015167ffffffffffffffff811115612437576124366118d9565b5b612443848285016123d5565b91505092915050565b7f4e487b7100000000000000000000000000000000000000000000000000000000600052603260045260246000fd5b7f4e487b7100000000000000000000000000000000000000000000000000000000600052601160045260246000fd5b60006124b5826118de565b91507fffffffffffffffffffffffffffffffffffffffffffffffffffffffffffffffff82036124e7576124e661247b565b5b600182019050919050565b6000604082019050818103600083015261250c8185611998565b905081810360208301526125208184611998565b90509392505050565b600060608201905061253e60008301866119f2565b81810360208301526125508185611998565b905081810360408301526125648184611998565b9050949350505050565b600060208284031215612584576125836118d4565b5b6000612592848285016120fb565b91505092915050565b600067ffffffffffffffff8211156125b6576125b5611a5e565b5b602082029050602081019050919050565b60006125da6125d58461259b565b611abe565b905080838252602082019050602084028301858111156125fd576125fc61228f565b5b835b8181101561264457805167ffffffffffffffff81111561262257612621611a54565b5b80860161262f89826120b8565b855260208501945050506020810190506125ff565b5050509392505050565b600082601f83011261266357612662611a54565b5b81516126738482602086016125c7565b91505092915050565b600060208284031215612692576126916118d4565b5b600082015167ffffffffffffffff8111156126b0576126af6118d9565b5b6126bc8482850161264e565b9150509291505056fea2646970667358221220a6384f32917e2f9d8a940fdbc0152f5340f29c35458815399217ba1ec221057a64736f6c63430008150033",
  "immutableReferences": {},
  "source": "// SPDX-License-Identifier: MIT\r\npragma solidity ^0.8.0;\r\nimport \"./interfaces/IIndicador.sol\";\r\nimport \"./interfaces/ITTP.sol\";\r\nimport \"./interfaces/IHerramientas.sol\";\r\n\r\n\r\ncontract ManagerSTIX {\r\n    address public owner;\r\n    IIndicador public indicadorContract;\r\n    ITTP public ttpContract;\r\n    IHerramientas public herramientasContract;\r\n\r\n    struct IOC {\r\n        string tipo;\r\n        string valor;\r\n        address reportadoPor;\r\n        uint256 fechaReporte;\r\n    }\r\n\r\n    constructor(address _indicadorAddress, address _ttpAddress, address _herramientasAddress) {\r\n        owner = msg.sender;\r\n        indicadorContract = IIndicador(_indicadorAddress);\r\n        ttpContract = ITTP(_ttpAddress);\r\n        herramientasContract = IHerramientas(_herramientasAddress);\r\n\r\n    }\r\n    \r\n    modifier onlyOwner() {\r\n        require(msg.sender == owner, \"Solo el propietario puede realizar esta accion\");\r\n        _;\r\n    }\r\n\r\n    // Funcin para actualizar la direccin del contrato de Indicadores\r\n    function setIndicadorContract(address _newAddress) public onlyOwner {\r\n        indicadorContract = IIndicador(_newAddress);\r\n    }\r\n\r\n    // Funcin para actualizar la direccin del contrato de TTPs\r\n    function setTTPContract(address _newAddress) public onlyOwner {\r\n        ttpContract = ITTP(_newAddress);\r\n    }\r\n\r\n    // Mtodos para interactuar con el contrato de Herramientas\r\n    function setHerramientasContract(address _newAddress) public onlyOwner {\r\n        herramientasContract = IHerramientas(_newAddress);\r\n    }\r\n\r\n    /////////////////////////////////////////////////////////////////////////////////////\r\n    /////////////////////// Delegar llamadas al contrato Indicador///////////////////////\r\n    /////////////////////////////////////////////////////////////////////////////////////\r\n\r\n\r\n    function agregarIOC(string memory tipo, string memory valor) public onlyOwner {\r\n        indicadorContract.agregarIOC(tipo, valor);\r\n    }\r\n\r\n    function actualizarIOC(uint256 id, string memory tipo, string memory valor) public onlyOwner {\r\n        indicadorContract.actualizarIOC(id, tipo, valor);\r\n    }\r\n\r\n    function eliminarIOC(uint256 id) public onlyOwner {\r\n        indicadorContract.eliminarIOC(id);\r\n    }\r\n\r\n    function obtenerIOCPorValor(string memory valorBuscado) public view returns (string memory tipo, string memory valor, address reportadoPor, uint256 fechaReporte) {\r\n        return indicadorContract.obtenerIOCPorValor(valorBuscado);\r\n    }\r\n\r\n    function obtenerIOC(uint256 id) public view returns (string memory tipo, string memory valor, address reportadoPor, uint256 fechaReporte) {\r\n        return indicadorContract.obtenerIOC(id);\r\n    }\r\n\r\n    function obtenerTodosIOCs() public view returns (IOC[] memory) {\r\n        IIndicador.IOC[] memory iocsFromIndicador = indicadorContract.obtenerTodosIOCs();\r\n        IOC[] memory iocs = new IOC[](iocsFromIndicador.length);\r\n        for (uint i = 0; i < iocsFromIndicador.length; i++) {\r\n            iocs[i].tipo = iocsFromIndicador[i].tipo;\r\n            iocs[i].valor = iocsFromIndicador[i].valor;\r\n            iocs[i].reportadoPor = iocsFromIndicador[i].reportadoPor;\r\n            iocs[i].fechaReporte = iocsFromIndicador[i].fechaReporte;\r\n        }\r\n        return iocs;\r\n    }\r\n\r\n    function obtenerIDPorValor(string memory valorBuscado) public view returns (uint256) {\r\n        return indicadorContract.obtenerIDPorValor(valorBuscado);\r\n    }\r\n\r\n    function getTiposPermitidos() public view returns (string[] memory) {\r\n        return indicadorContract.getTiposPermitidos();\r\n    }\r\n\r\n    /////////////////////////////////////////////////////////////////////////////////////\r\n    ///////////////////////// Delegar llamadas al contrato TTP //////////////////////////\r\n    /////////////////////////////////////////////////////////////////////////////////////\r\n\r\n    function agregarTTP(string memory descripcion, string memory categoria) public onlyOwner {\r\n        ttpContract.agregarTTP(descripcion, categoria);\r\n    }\r\n\r\n    function actualizarTTP(uint256 id, string memory descripcion, string memory categoria) public onlyOwner {\r\n        ttpContract.actualizarTTP(id, descripcion, categoria);\r\n    }\r\n\r\n    function eliminarTTP(uint256 id) public onlyOwner {\r\n        ttpContract.eliminarTTP(id);\r\n    }\r\n\r\n    function obtenerTTP(uint256 id) public view returns (string memory descripcion, string memory categoria, address reportadoPor, uint256 fechaReporte) {\r\n        return ttpContract.obtenerTTP(id);\r\n    }\r\n\r\n    /////////////////////////////////////////////////////////////////////////////////////\r\n    //////////////////// Delegar llamadas al contrato Herramientas //////////////////////\r\n    /////////////////////////////////////////////////////////////////////////////////////\r\n\r\n    function agregarHerramienta(string memory nombre, string memory descripcion) public onlyOwner {\r\n        herramientasContract.agregarHerramienta(nombre, descripcion);\r\n    }\r\n\r\n    function actualizarHerramienta(uint256 id, string memory nombre, string memory descripcion) public onlyOwner {\r\n        herramientasContract.actualizarHerramienta(id, nombre, descripcion);\r\n    }\r\n\r\n    function eliminarHerramienta(uint256 id) public onlyOwner {\r\n        herramientasContract.eliminarHerramienta(id);\r\n    }\r\n\r\n    function obtenerHerramienta(uint256 id) public view returns (string memory nombre, string memory descripcion, address reportadoPor, uint256 fechaReporte) {\r\n        return herramientasContract.obtenerHerramienta(id);\r\n    }\r\n}\r\n",
  "sourcePath": "C:\\Users\\difer\\Desktop\\Truffle\\contracts\\ManagerSTIX.sol",
  "compiler": {
    "name": "solc",
    "version": "0.8.21+commit.d9974bed.Emscripten.clang"
  },
  "schemaVersion": "3.4.16",
  "updatedAt": "2024-05-12T10:31:54.013Z",
  "networkType": "ethereum",
  "devdoc": {
    "kind": "dev",
    "methods": {},
    "version": 1
  },
  "userdoc": {
    "kind": "user",
    "methods": {},
    "version": 1
  }
}