{
  "contractName": "TTP",
  "abi": [
    {
      "anonymous": false,
      "inputs": [
        {
          "indexed": true,
          "internalType": "uint256",
          "name": "id",
          "type": "uint256"
        },
        {
          "indexed": false,
          "internalType": "string",
          "name": "descripcion",
          "type": "string"
        },
        {
          "indexed": false,
          "internalType": "string",
          "name": "categoria",
          "type": "string"
        }
      ],
      "name": "TTPAdded",
      "type": "event"
    },
    {
      "anonymous": false,
      "inputs": [
        {
          "indexed": true,
          "internalType": "uint256",
          "name": "id",
          "type": "uint256"
        }
      ],
      "name": "TTPDeleted",
      "type": "event"
    },
    {
      "anonymous": false,
      "inputs": [
        {
          "indexed": true,
          "internalType": "uint256",
          "name": "id",
          "type": "uint256"
        },
        {
          "indexed": false,
          "internalType": "string",
          "name": "descripcion",
          "type": "string"
        },
        {
          "indexed": false,
          "internalType": "string",
          "name": "categoria",
          "type": "string"
        }
      ],
      "name": "TTPUpdated",
      "type": "event"
    },
    {
      "inputs": [
        {
          "internalType": "string",
          "name": "descripcion",
          "type": "string"
        },
        {
          "internalType": "string",
          "name": "categoria",
          "type": "string"
        }
      ],
      "name": "agregarTTP",
      "outputs": [],
      "stateMutability": "nonpayable",
      "type": "function"
    },
    {
      "inputs": [
        {
          "internalType": "uint256",
          "name": "id",
          "type": "uint256"
        },
        {
          "internalType": "string",
          "name": "descripcion",
          "type": "string"
        },
        {
          "internalType": "string",
          "name": "categoria",
          "type": "string"
        }
      ],
      "name": "actualizarTTP",
      "outputs": [],
      "stateMutability": "nonpayable",
      "type": "function"
    },
    {
      "inputs": [
        {
          "internalType": "uint256",
          "name": "id",
          "type": "uint256"
        }
      ],
      "name": "eliminarTTP",
      "outputs": [],
      "stateMutability": "nonpayable",
      "type": "function"
    },
    {
      "inputs": [
        {
          "internalType": "uint256",
          "name": "id",
          "type": "uint256"
        }
      ],
      "name": "obtenerTTP",
      "outputs": [
        {
          "internalType": "string",
          "name": "descripcion",
          "type": "string"
        },
        {
          "internalType": "string",
          "name": "categoria",
          "type": "string"
        },
        {
          "internalType": "address",
          "name": "reportadoPor",
          "type": "address"
        },
        {
          "internalType": "uint256",
          "name": "fechaReporte",
          "type": "uint256"
        }
      ],
      "stateMutability": "view",
      "type": "function",
      "constant": true
    },
    {
      "inputs": [],
      "name": "obtenerTodosTTPs",
      "outputs": [
        {
          "components": [
            {
              "internalType": "string",
              "name": "descripcion",
              "type": "string"
            },
            {
              "internalType": "string",
              "name": "categoria",
              "type": "string"
            },
            {
              "internalType": "address",
              "name": "reportadoPor",
              "type": "address"
            },
            {
              "internalType": "uint256",
              "name": "fechaReporte",
              "type": "uint256"
            }
          ],
          "internalType": "struct ITTP.TTP[]",
          "name": "",
          "type": "tuple[]"
        }
      ],
      "stateMutability": "view",
      "type": "function",
      "constant": true
    }
  ],
  "bytecode": "0x6080604052600060015534801561001557600080fd5b5061128c806100256000396000f3fe608060405234801561001057600080fd5b50600436106100575760003560e01c806332aa36411461005c578063525ef0ea1461008f5780639374a506146100ab578063c0f4140d146100c7578063e440d081146100e3575b600080fd5b610076600480360381019061007191906108ad565b610101565b60405161008694939291906109ba565b60405180910390f35b6100a960048036038101906100a491906108ad565b6102bb565b005b6100c560048036038101906100c09190610b42565b610393565b005b6100e160048036038101906100dc9190610bcd565b610451565b005b6100eb610585565b6040516100f89190610dd9565b60405180910390f35b606080600080600154851061014b576040517f08c379a000000000000000000000000000000000000000000000000000000000815260040161014290610e47565b60405180910390fd5b6000806000878152602001908152602001600020905080600001816001018260020160009054906101000a900473ffffffffffffffffffffffffffffffffffffffff16836003015483805461019f90610e96565b80601f01602080910402602001604051908101604052809291908181526020018280546101cb90610e96565b80156102185780601f106101ed57610100808354040283529160200191610218565b820191906000526020600020905b8154815290600101906020018083116101fb57829003601f168201915b5050505050935082805461022b90610e96565b80601f016020809104026020016040519081016040528092919081815260200182805461025790610e96565b80156102a45780601f10610279576101008083540402835291602001916102a4565b820191906000526020600020905b81548152906001019060200180831161028757829003601f168201915b505050505092509450945094509450509193509193565b60015481106102ff576040517f08c379a00000000000000000000000000000000000000000000000000000000081526004016102f690610e47565b60405180910390fd5b6000808281526020019081526020016000206000808201600061032291906107c8565b60018201600061033291906107c8565b6002820160006101000a81549073ffffffffffffffffffffffffffffffffffffffff021916905560038201600090555050807f0317b51d219da391db8d82cbb7dc2485af083ad8711b6a35660350447f39ef5360405160405180910390a250565b60015483106103d7576040517f08c379a00000000000000000000000000000000000000000000000000000000081526004016103ce90610e47565b60405180910390fd5b60008060008581526020019081526020016000209050828160000190816103fe9190611073565b50818160010190816104109190611073565b50837fc2b696f58f58751b0a0d1263bf93c07d8d143ed860fa2ec123d15b9c4c08859a8484604051610443929190611145565b60405180910390a250505050565b600060405180608001604052808481526020018381526020013373ffffffffffffffffffffffffffffffffffffffff16815260200142815250905080600080600154815260200190815260200160002060008201518160000190816104b69190611073565b5060208201518160010190816104cc9190611073565b5060408201518160020160006101000a81548173ffffffffffffffffffffffffffffffffffffffff021916908373ffffffffffffffffffffffffffffffffffffffff1602179055506060820151816003015590505060016000815480929190610534906111ab565b91905055506001805461054791906111f3565b7f444d4c1383e7668a2a4dc9d50d9db9224b9a599d75740d79fc796c06c89fada18484604051610578929190611145565b60405180910390a2505050565b6060600060015467ffffffffffffffff8111156105a5576105a4610a17565b5b6040519080825280602002602001820160405280156105de57816020015b6105cb610808565b8152602001906001900390816105c35790505b50905060005b6001548110156107c05760008082815260200190815260200160002060405180608001604052908160008201805461061b90610e96565b80601f016020809104026020016040519081016040528092919081815260200182805461064790610e96565b80156106945780601f1061066957610100808354040283529160200191610694565b820191906000526020600020905b81548152906001019060200180831161067757829003601f168201915b505050505081526020016001820180546106ad90610e96565b80601f01602080910402602001604051908101604052809291908181526020018280546106d990610e96565b80156107265780601f106106fb57610100808354040283529160200191610726565b820191906000526020600020905b81548152906001019060200180831161070957829003601f168201915b505050505081526020016002820160009054906101000a900473ffffffffffffffffffffffffffffffffffffffff1673ffffffffffffffffffffffffffffffffffffffff1673ffffffffffffffffffffffffffffffffffffffff1681526020016003820154815250508282815181106107a2576107a1611227565b5b602002602001018190525080806107b8906111ab565b9150506105e4565b508091505090565b5080546107d490610e96565b6000825580601f106107e65750610805565b601f0160209004906000526020600020908101906108049190610846565b5b50565b60405180608001604052806060815260200160608152602001600073ffffffffffffffffffffffffffffffffffffffff168152602001600081525090565b5b8082111561085f576000816000905550600101610847565b5090565b6000604051905090565b600080fd5b600080fd5b6000819050919050565b61088a81610877565b811461089557600080fd5b50565b6000813590506108a781610881565b92915050565b6000602082840312156108c3576108c261086d565b5b60006108d184828501610898565b91505092915050565b600081519050919050565b600082825260208201905092915050565b60005b838110156109145780820151818401526020810190506108f9565b60008484015250505050565b6000601f19601f8301169050919050565b600061093c826108da565b61094681856108e5565b93506109568185602086016108f6565b61095f81610920565b840191505092915050565b600073ffffffffffffffffffffffffffffffffffffffff82169050919050565b60006109958261096a565b9050919050565b6109a58161098a565b82525050565b6109b481610877565b82525050565b600060808201905081810360008301526109d48187610931565b905081810360208301526109e88186610931565b90506109f7604083018561099c565b610a0460608301846109ab565b95945050505050565b600080fd5b600080fd5b7f4e487b7100000000000000000000000000000000000000000000000000000000600052604160045260246000fd5b610a4f82610920565b810181811067ffffffffffffffff82111715610a6e57610a6d610a17565b5b80604052505050565b6000610a81610863565b9050610a8d8282610a46565b919050565b600067ffffffffffffffff821115610aad57610aac610a17565b5b610ab682610920565b9050602081019050919050565b82818337600083830152505050565b6000610ae5610ae084610a92565b610a77565b905082815260208101848484011115610b0157610b00610a12565b5b610b0c848285610ac3565b509392505050565b600082601f830112610b2957610b28610a0d565b5b8135610b39848260208601610ad2565b91505092915050565b600080600060608486031215610b5b57610b5a61086d565b5b6000610b6986828701610898565b935050602084013567ffffffffffffffff811115610b8a57610b89610872565b5b610b9686828701610b14565b925050604084013567ffffffffffffffff811115610bb757610bb6610872565b5b610bc386828701610b14565b9150509250925092565b60008060408385031215610be457610be361086d565b5b600083013567ffffffffffffffff811115610c0257610c01610872565b5b610c0e85828601610b14565b925050602083013567ffffffffffffffff811115610c2f57610c2e610872565b5b610c3b85828601610b14565b9150509250929050565b600081519050919050565b600082825260208201905092915050565b6000819050602082019050919050565b600082825260208201905092915050565b6000610c8d826108da565b610c978185610c71565b9350610ca78185602086016108f6565b610cb081610920565b840191505092915050565b610cc48161098a565b82525050565b610cd381610877565b82525050565b60006080830160008301518482036000860152610cf68282610c82565b91505060208301518482036020860152610d108282610c82565b9150506040830151610d256040860182610cbb565b506060830151610d386060860182610cca565b508091505092915050565b6000610d4f8383610cd9565b905092915050565b6000602082019050919050565b6000610d6f82610c45565b610d798185610c50565b935083602082028501610d8b85610c61565b8060005b85811015610dc75784840389528151610da88582610d43565b9450610db383610d57565b925060208a01995050600181019050610d8f565b50829750879550505050505092915050565b60006020820190508181036000830152610df38184610d64565b905092915050565b7f545450206e6f2065786973746500000000000000000000000000000000000000600082015250565b6000610e31600d836108e5565b9150610e3c82610dfb565b602082019050919050565b60006020820190508181036000830152610e6081610e24565b9050919050565b7f4e487b7100000000000000000000000000000000000000000000000000000000600052602260045260246000fd5b60006002820490506001821680610eae57607f821691505b602082108103610ec157610ec0610e67565b5b50919050565b60008190508160005260206000209050919050565b60006020601f8301049050919050565b600082821b905092915050565b600060088302610f297fffffffffffffffffffffffffffffffffffffffffffffffffffffffffffffffff82610eec565b610f338683610eec565b95508019841693508086168417925050509392505050565b6000819050919050565b6000610f70610f6b610f6684610877565b610f4b565b610877565b9050919050565b6000819050919050565b610f8a83610f55565b610f9e610f9682610f77565b848454610ef9565b825550505050565b600090565b610fb3610fa6565b610fbe818484610f81565b505050565b5b81811015610fe257610fd7600082610fab565b600181019050610fc4565b5050565b601f82111561102757610ff881610ec7565b61100184610edc565b81016020851015611010578190505b61102461101c85610edc565b830182610fc3565b50505b505050565b600082821c905092915050565b600061104a6000198460080261102c565b1980831691505092915050565b60006110638383611039565b9150826002028217905092915050565b61107c826108da565b67ffffffffffffffff81111561109557611094610a17565b5b61109f8254610e96565b6110aa828285610fe6565b600060209050601f8311600181146110dd57600084156110cb578287015190505b6110d58582611057565b86555061113d565b601f1984166110eb86610ec7565b60005b82811015611113578489015182556001820191506020850194506020810190506110ee565b86831015611130578489015161112c601f891682611039565b8355505b6001600288020188555050505b505050505050565b6000604082019050818103600083015261115f8185610931565b905081810360208301526111738184610931565b90509392505050565b7f4e487b7100000000000000000000000000000000000000000000000000000000600052601160045260246000fd5b60006111b682610877565b91507fffffffffffffffffffffffffffffffffffffffffffffffffffffffffffffffff82036111e8576111e761117c565b5b600182019050919050565b60006111fe82610877565b915061120983610877565b92508282039050818111156112215761122061117c565b5b92915050565b7f4e487b7100000000000000000000000000000000000000000000000000000000600052603260045260246000fdfea26469706673582212200121c024a6a35eaf343a90b982a811f2469a87f5bb508d9a5ced99331b4e678b64736f6c63430008150033",
  "immutableReferences": {},
  "source": "// SPDX-License-Identifier: MIT\r\npragma solidity ^0.8.0;\r\n\r\nimport \"../interfaces/ITTP.sol\";\r\n\r\ncontract TTP is ITTP {\r\n    mapping(uint256 => TTP) private ttps;\r\n    uint256 private totalTTPs = 0;\r\n\r\n    event TTPAdded(uint256 indexed id, string descripcion, string categoria);\r\n    event TTPUpdated(uint256 indexed id, string descripcion, string categoria);\r\n    event TTPDeleted(uint256 indexed id);\r\n\r\n    // Agregar un nuevo TTP\r\n    function agregarTTP(string memory descripcion, string memory categoria) public {\r\n        TTP memory nuevoTTP = TTP({\r\n            descripcion: descripcion,\r\n            categoria: categoria,\r\n            reportadoPor: msg.sender,\r\n            fechaReporte: block.timestamp\r\n        });\r\n\r\n        ttps[totalTTPs] = nuevoTTP;\r\n        totalTTPs++;\r\n        emit TTPAdded(totalTTPs - 1, descripcion, categoria);\r\n    }\r\n\r\n    // Actualizar un TTP existente\r\n    function actualizarTTP(uint256 id, string memory descripcion, string memory categoria) public {\r\n        require(id < totalTTPs, \"TTP no existe\");\r\n        TTP storage ttp = ttps[id];\r\n        ttp.descripcion = descripcion;\r\n        ttp.categoria = categoria;\r\n        emit TTPUpdated(id, descripcion, categoria);\r\n    }\r\n\r\n    // Eliminar un TTP\r\n    function eliminarTTP(uint256 id) public {\r\n        require(id < totalTTPs, \"TTP no existe\");\r\n        delete ttps[id];\r\n        emit TTPDeleted(id);\r\n    }\r\n\r\n    // Obtener detalles de un TTP\r\n    function obtenerTTP(uint256 id) public view returns (string memory descripcion, string memory categoria, address reportadoPor, uint256 fechaReporte) {\r\n        require(id < totalTTPs, \"TTP no existe\");\r\n        TTP storage ttp = ttps[id];\r\n        return (ttp.descripcion, ttp.categoria, ttp.reportadoPor, ttp.fechaReporte);\r\n    }\r\n\r\n    // Obtener todos los TTPs registrados\r\n    function obtenerTodosTTPs() public view returns (TTP[] memory) {\r\n        TTP[] memory todos = new TTP[](totalTTPs);\r\n        for (uint256 i = 0; i < totalTTPs; i++) {\r\n            todos[i] = ttps[i];\r\n        }\r\n        return todos;\r\n    }\r\n}\r\n",
  "sourcePath": "C:\\Users\\difer\\Desktop\\Truffle\\contracts\\contratos\\TTP.sol",
  "compiler": {
    "name": "solc",
    "version": "0.8.21+commit.d9974bed.Emscripten.clang"
  },
  "schemaVersion": "3.4.16",
  "updatedAt": "2024-05-12T10:31:54.054Z",
  "networkType": "ethereum",
  "devdoc": {
    "kind": "dev",
    "methods": {},
    "version": 1
  },
  "userdoc": {
    "kind": "user",
    "methods": {},
    "version": 1
  }
}